{
  "_format": "hh-sol-artifact-1",
  "contractName": "DesubToken",
  "sourceName": "contracts/DesubToken.sol",
  "abi": [
    {
      "anonymous": false,
      "inputs": [
        {
          "indexed": true,
          "internalType": "address",
          "name": "from",
          "type": "address"
        },
        {
          "indexed": true,
          "internalType": "address",
          "name": "to",
          "type": "address"
        },
        {
          "indexed": true,
          "internalType": "uint256",
          "name": "tokenID",
          "type": "uint256"
        }
      ],
      "name": "Transfer",
      "type": "event"
    },
    {
      "inputs": [
        {
          "internalType": "address",
          "name": "tokenOwner",
          "type": "address"
        }
      ],
      "name": "balanceOf",
      "outputs": [
        {
          "internalType": "uint256",
          "name": "",
          "type": "uint256"
        }
      ],
      "stateMutability": "view",
      "type": "function"
    },
    {
      "inputs": [
        {
          "internalType": "uint256",
          "name": "tokenID",
          "type": "uint256"
        }
      ],
      "name": "getNumberOfSubTokensSoldOfTokenID",
      "outputs": [
        {
          "internalType": "uint256",
          "name": "",
          "type": "uint256"
        }
      ],
      "stateMutability": "view",
      "type": "function"
    },
    {
      "inputs": [
        {
          "internalType": "uint256",
          "name": "tokenID",
          "type": "uint256"
        },
        {
          "internalType": "address",
          "name": "purchaserAddress",
          "type": "address"
        }
      ],
      "name": "getSequenceOfPurchaseOfTokenIDByAddress",
      "outputs": [
        {
          "internalType": "uint256",
          "name": "",
          "type": "uint256"
        }
      ],
      "stateMutability": "view",
      "type": "function"
    },
    {
      "inputs": [
        {
          "internalType": "uint256",
          "name": "tokenID",
          "type": "uint256"
        }
      ],
      "name": "getSubTokenHolderReferralRoyaltyPaidOut",
      "outputs": [
        {
          "internalType": "uint256",
          "name": "",
          "type": "uint256"
        }
      ],
      "stateMutability": "view",
      "type": "function"
    },
    {
      "inputs": [
        {
          "internalType": "address",
          "name": "subTokenHolder",
          "type": "address"
        },
        {
          "internalType": "uint256",
          "name": "tokenID",
          "type": "uint256"
        }
      ],
      "name": "getSubTokenHolderRoyaltyBalance",
      "outputs": [
        {
          "internalType": "uint256",
          "name": "",
          "type": "uint256"
        }
      ],
      "stateMutability": "view",
      "type": "function"
    },
    {
      "inputs": [
        {
          "internalType": "uint256",
          "name": "tokenID",
          "type": "uint256"
        }
      ],
      "name": "getSubTokenHolderStackRewardPaidOut",
      "outputs": [
        {
          "internalType": "uint256",
          "name": "",
          "type": "uint256"
        }
      ],
      "stateMutability": "view",
      "type": "function"
    },
    {
      "inputs": [
        {
          "internalType": "address",
          "name": "subTokenHolder",
          "type": "address"
        },
        {
          "internalType": "uint256",
          "name": "tokenID",
          "type": "uint256"
        }
      ],
      "name": "getSubTokenHolderStackRewardPct",
      "outputs": [
        {
          "internalType": "uint256",
          "name": "",
          "type": "uint256"
        }
      ],
      "stateMutability": "view",
      "type": "function"
    },
    {
      "inputs": [
        {
          "internalType": "address",
          "name": "subTokenHolder",
          "type": "address"
        },
        {
          "internalType": "uint256",
          "name": "tokenID",
          "type": "uint256"
        }
      ],
      "name": "getSubTokenHolderTotalStackReward",
      "outputs": [
        {
          "internalType": "uint256",
          "name": "",
          "type": "uint256"
        }
      ],
      "stateMutability": "view",
      "type": "function"
    },
    {
      "inputs": [
        {
          "internalType": "uint256",
          "name": "tokenID",
          "type": "uint256"
        }
      ],
      "name": "getTokenHolderRoyaltyGrossTotal",
      "outputs": [
        {
          "internalType": "uint256",
          "name": "",
          "type": "uint256"
        }
      ],
      "stateMutability": "view",
      "type": "function"
    },
    {
      "inputs": [
        {
          "internalType": "uint256",
          "name": "tokenID",
          "type": "uint256"
        }
      ],
      "name": "getTokenHolderRoyaltyPaidOut",
      "outputs": [
        {
          "internalType": "uint256",
          "name": "",
          "type": "uint256"
        }
      ],
      "stateMutability": "view",
      "type": "function"
    },
    {
      "inputs": [
        {
          "internalType": "string",
          "name": "name_",
          "type": "string"
        },
        {
          "internalType": "string",
          "name": "symbol_",
          "type": "string"
        }
      ],
      "name": "initialize",
      "outputs": [],
      "stateMutability": "nonpayable",
      "type": "function"
    },
    {
      "inputs": [
        {
          "internalType": "address",
          "name": "to",
          "type": "address"
        },
        {
          "internalType": "uint256",
          "name": "tokenID",
          "type": "uint256"
        }
      ],
      "name": "mint",
      "outputs": [],
      "stateMutability": "nonpayable",
      "type": "function"
    },
    {
      "inputs": [
        {
          "internalType": "uint256",
          "name": "tokenID",
          "type": "uint256"
        },
        {
          "internalType": "address",
          "name": "referrerAddress",
          "type": "address"
        }
      ],
      "name": "numberOfReferralsForTokenIDandAddress",
      "outputs": [
        {
          "internalType": "uint256",
          "name": "",
          "type": "uint256"
        }
      ],
      "stateMutability": "view",
      "type": "function"
    },
    {
      "inputs": [],
      "name": "owner",
      "outputs": [
        {
          "internalType": "address",
          "name": "",
          "type": "address"
        }
      ],
      "stateMutability": "view",
      "type": "function"
    },
    {
      "inputs": [
        {
          "internalType": "uint256",
          "name": "tokenID",
          "type": "uint256"
        }
      ],
      "name": "ownerOf",
      "outputs": [
        {
          "internalType": "address",
          "name": "",
          "type": "address"
        }
      ],
      "stateMutability": "view",
      "type": "function"
    },
    {
      "inputs": [
        {
          "internalType": "uint256",
          "name": "tokenID",
          "type": "uint256"
        },
        {
          "internalType": "uint256",
          "name": "amount",
          "type": "uint256"
        },
        {
          "internalType": "address",
          "name": "to",
          "type": "address"
        }
      ],
      "name": "payOutSubTokenHolderReferralRoyalty",
      "outputs": [],
      "stateMutability": "nonpayable",
      "type": "function"
    },
    {
      "inputs": [
        {
          "internalType": "uint256",
          "name": "tokenID",
          "type": "uint256"
        },
        {
          "internalType": "uint256",
          "name": "amount",
          "type": "uint256"
        },
        {
          "internalType": "address",
          "name": "to",
          "type": "address"
        }
      ],
      "name": "payOutSubTokenHolderStackReward",
      "outputs": [],
      "stateMutability": "nonpayable",
      "type": "function"
    },
    {
      "inputs": [
        {
          "internalType": "uint256",
          "name": "tokenID",
          "type": "uint256"
        },
        {
          "internalType": "uint256",
          "name": "amount",
          "type": "uint256"
        },
        {
          "internalType": "address",
          "name": "to",
          "type": "address"
        }
      ],
      "name": "payOutTokenHolderRoyalty",
      "outputs": [],
      "stateMutability": "nonpayable",
      "type": "function"
    },
    {
      "inputs": [
        {
          "internalType": "address",
          "name": "referrer",
          "type": "address"
        },
        {
          "internalType": "uint256",
          "name": "tokenID",
          "type": "uint256"
        }
      ],
      "name": "purchaseSubToken",
      "outputs": [],
      "stateMutability": "payable",
      "type": "function"
    },
    {
      "inputs": [
        {
          "internalType": "address",
          "name": "tokenOwner",
          "type": "address"
        },
        {
          "internalType": "uint256",
          "name": "index",
          "type": "uint256"
        }
      ],
      "name": "tokenOfOwnerByIndex",
      "outputs": [
        {
          "internalType": "uint256",
          "name": "",
          "type": "uint256"
        }
      ],
      "stateMutability": "view",
      "type": "function"
    },
    {
      "inputs": [],
      "name": "universalContentPrice",
      "outputs": [
        {
          "internalType": "uint256",
          "name": "",
          "type": "uint256"
        }
      ],
      "stateMutability": "view",
      "type": "function"
    }
  ],
  "bytecode": "0x608060405234801561001057600080fd5b50613117806100206000396000f3fe60806040526004361061012a5760003560e01c80637edd47a1116100ab578063b00add911161006f578063b00add911461044e578063bb5516781461048b578063c975a722146104c8578063e168818f14610505578063ed35eb7c1461052e578063f86a4ffd1461054a5761012a565b80637edd47a114610355578063882384301461039257806389346666146103bd5780638da5cb5b146103fa57806396f29001146104255761012a565b806340c10f19116100f257806340c10f191461024c5780634bcd2119146102755780634cd88b76146102b25780636352211e146102db57806370a08231146103185761012a565b80631e3160c51461012f5780631eec26d31461016c5780632f745c591461019557806334eee17a146101d25780633b17b6271461020f575b600080fd5b34801561013b57600080fd5b5061015660048036038101906101519190611f94565b610587565b6040516101639190611fe3565b60405180910390f35b34801561017857600080fd5b50610193600480360381019061018e9190611ffe565b6105c4565b005b3480156101a157600080fd5b506101bc60048036038101906101b79190611f94565b61086b565b6040516101c99190611fe3565b60405180910390f35b3480156101de57600080fd5b506101f960048036038101906101f49190612051565b6108c6565b6040516102069190611fe3565b60405180910390f35b34801561021b57600080fd5b5061023660048036038101906102319190611f94565b610918565b6040516102439190611fe3565b60405180910390f35b34801561025857600080fd5b50610273600480360381019061026e9190611f94565b610989565b005b34801561028157600080fd5b5061029c60048036038101906102979190611f94565b610bb6565b6040516102a99190611fe3565b60405180910390f35b3480156102be57600080fd5b506102d960048036038101906102d491906121c4565b610bf3565b005b3480156102e757600080fd5b5061030260048036038101906102fd9190612051565b610d50565b60405161030f919061224b565b60405180910390f35b34801561032457600080fd5b5061033f600480360381019061033a9190612266565b610e02565b60405161034c9190611fe3565b60405180910390f35b34801561036157600080fd5b5061037c60048036038101906103779190612051565b610eba565b6040516103899190611fe3565b60405180910390f35b34801561039e57600080fd5b506103a7610f5d565b6040516103b49190611fe3565b60405180910390f35b3480156103c957600080fd5b506103e460048036038101906103df9190612051565b610f68565b6040516103f19190611fe3565b60405180910390f35b34801561040657600080fd5b5061040f610f85565b60405161041c919061224b565b60405180910390f35b34801561043157600080fd5b5061044c60048036038101906104479190611ffe565b610fab565b005b34801561045a57600080fd5b5061047560048036038101906104709190612293565b611252565b6040516104829190611fe3565b60405180910390f35b34801561049757600080fd5b506104b260048036038101906104ad9190612051565b6112ad565b6040516104bf9190611fe3565b60405180910390f35b3480156104d457600080fd5b506104ef60048036038101906104ea9190612051565b6113a8565b6040516104fc9190611fe3565b60405180910390f35b34801561051157600080fd5b5061052c60048036038101906105279190611ffe565b61144b565b005b61054860048036038101906105439190611f94565b611749565b005b34801561055657600080fd5b50610571600480360381019061056c9190612293565b611b4e565b60405161057e9190611fe3565b60405180910390f35b60008066017c231a281af861059c8486611b4e565b6105a69190612302565b90506000600a826105b7919061238b565b9050809250505092915050565b6002600154141561060a576040517f08c379a000000000000000000000000000000000000000000000000000000000815260040161060190612419565b60405180910390fd5b600260018190555061061c8333611ba9565b61065b576040517f08c379a0000000000000000000000000000000000000000000000000000000008152600401610652906124d1565b60405180910390fd5b6000821161069e576040517f08c379a000000000000000000000000000000000000000000000000000000000815260040161069590612563565b60405180910390fd5b6000603e600085815260200190815260200160002060003373ffffffffffffffffffffffffffffffffffffffff1673ffffffffffffffffffffffffffffffffffffffff168152602001908152602001600020546106fb3386610587565b6107059190612583565b90508281101561074a576040517f08c379a000000000000000000000000000000000000000000000000000000000815260040161074190612629565b60405180910390fd5b82603e600086815260200190815260200160002060003373ffffffffffffffffffffffffffffffffffffffff1673ffffffffffffffffffffffffffffffffffffffff16815260200190815260200160002060008282546107aa9190612649565b9250508190555060008273ffffffffffffffffffffffffffffffffffffffff16846040516107d7906126d0565b60006040518083038185875af1925050503d8060008114610814576040519150601f19603f3d011682016040523d82523d6000602084013e610819565b606091505b505090508061085d576040517f08c379a000000000000000000000000000000000000000000000000000000000815260040161085490612731565b60405180910390fd5b505060018081905550505050565b60006108be82603760008673ffffffffffffffffffffffffffffffffffffffff1673ffffffffffffffffffffffffffffffffffffffff168152602001908152602001600020611c0690919063ffffffff16565b905092915050565b60008066017c231a281af860396000858152602001908152602001600020546108ef9190612302565b9050600060646050836109029190612302565b61090c919061238b565b90508092505050919050565b6000806109258484610bb6565b9050600066017c231a281af8603960008681526020019081526020016000205461094f9190612302565b90506000640684ee1800604b84846109679190612302565b6109719190612302565b61097b919061238b565b905080935050505092915050565b600073ffffffffffffffffffffffffffffffffffffffff168273ffffffffffffffffffffffffffffffffffffffff1614156109f9576040517f08c379a00000000000000000000000000000000000000000000000000000000081526004016109f09061279d565b60405180910390fd5b610a0281611c20565b15610a42576040517f08c379a0000000000000000000000000000000000000000000000000000000008152600401610a3990612809565b60405180910390fd5b816036600083815260200190815260200160002060006101000a81548173ffffffffffffffffffffffffffffffffffffffff021916908373ffffffffffffffffffffffffffffffffffffffff1602179055506001603860008473ffffffffffffffffffffffffffffffffffffffff1673ffffffffffffffffffffffffffffffffffffffff1681526020019081526020016000206000828254610ae49190612649565b92505081905550610b3c81603760008573ffffffffffffffffffffffffffffffffffffffff1673ffffffffffffffffffffffffffffffffffffffff168152602001908152602001600020611c8c90919063ffffffff16565b5060006039600083815260200190815260200160002081905550808273ffffffffffffffffffffffffffffffffffffffff16600073ffffffffffffffffffffffffffffffffffffffff167fddf252ad1be2c89b69c2b068fc378daa952ba7f163c4a11628f55a4df523b3ef60405160405180910390a45050565b600080610bc38385611252565b9050603b600084815260200190815260200160002060008281526020019081526020016000205491505092915050565b600060019054906101000a900460ff16610c1b5760008054906101000a900460ff1615610c24565b610c23611ca6565b5b610c63576040517f08c379a0000000000000000000000000000000000000000000000000000000008152600401610c5a9061289b565b60405180910390fd5b60008060019054906101000a900460ff161590508015610cb3576001600060016101000a81548160ff02191690831515021790555060016000806101000a81548160ff0219169083151502179055505b610cbb611cb7565b8260339080519060200190610cd1929190611e49565b508160349080519060200190610ce8929190611e49565b5033603560006101000a81548173ffffffffffffffffffffffffffffffffffffffff021916908373ffffffffffffffffffffffffffffffffffffffff1602179055508015610d4b5760008060016101000a81548160ff0219169083151502179055505b505050565b6000806036600084815260200190815260200160002060009054906101000a900473ffffffffffffffffffffffffffffffffffffffff169050600073ffffffffffffffffffffffffffffffffffffffff168173ffffffffffffffffffffffffffffffffffffffff161415610df9576040517f08c379a0000000000000000000000000000000000000000000000000000000008152600401610df09061292d565b60405180910390fd5b80915050919050565b60008073ffffffffffffffffffffffffffffffffffffffff168273ffffffffffffffffffffffffffffffffffffffff161415610e73576040517f08c379a0000000000000000000000000000000000000000000000000000000008152600401610e6a906129bf565b60405180910390fd5b603860008373ffffffffffffffffffffffffffffffffffffffff1673ffffffffffffffffffffffffffffffffffffffff168152602001908152602001600020549050919050565b6000610ec68233611ba9565b610f05576040517f08c379a0000000000000000000000000000000000000000000000000000000008152600401610efc90612a77565b60405180910390fd5b603f600083815260200190815260200160002060003373ffffffffffffffffffffffffffffffffffffffff1673ffffffffffffffffffffffffffffffffffffffff168152602001908152602001600020549050919050565b66017c231a281af881565b600060396000838152602001908152602001600020549050919050565b603560009054906101000a900473ffffffffffffffffffffffffffffffffffffffff1681565b60026001541415610ff1576040517f08c379a0000000000000000000000000000000000000000000000000000000008152600401610fe890612419565b60405180910390fd5b60026001819055506110038333611ba9565b611042576040517f08c379a000000000000000000000000000000000000000000000000000000000815260040161103990612b2f565b60405180910390fd5b60008211611085576040517f08c379a000000000000000000000000000000000000000000000000000000000815260040161107c90612563565b60405180910390fd5b6000603f600085815260200190815260200160002060003373ffffffffffffffffffffffffffffffffffffffff1673ffffffffffffffffffffffffffffffffffffffff168152602001908152602001600020546110e23386610918565b6110ec9190612583565b905082811015611131576040517f08c379a000000000000000000000000000000000000000000000000000000000815260040161112890612629565b60405180910390fd5b82603f600086815260200190815260200160002060003373ffffffffffffffffffffffffffffffffffffffff1673ffffffffffffffffffffffffffffffffffffffff16815260200190815260200160002060008282546111919190612649565b9250508190555060008273ffffffffffffffffffffffffffffffffffffffff16846040516111be906126d0565b60006040518083038185875af1925050503d80600081146111fb576040519150601f19603f3d011682016040523d82523d6000602084013e611200565b606091505b5050905080611244576040517f08c379a000000000000000000000000000000000000000000000000000000000815260040161123b90612731565b60405180910390fd5b505060018081905550505050565b6000603a600084815260200190815260200160002060008373ffffffffffffffffffffffffffffffffffffffff1673ffffffffffffffffffffffffffffffffffffffff16815260200190815260200160002054905092915050565b60006036600083815260200190815260200160002060009054906101000a900473ffffffffffffffffffffffffffffffffffffffff1673ffffffffffffffffffffffffffffffffffffffff163373ffffffffffffffffffffffffffffffffffffffff1614611350576040517f08c379a000000000000000000000000000000000000000000000000000000000815260040161134790612be7565b60405180910390fd5b603d600083815260200190815260200160002060003373ffffffffffffffffffffffffffffffffffffffff1673ffffffffffffffffffffffffffffffffffffffff168152602001908152602001600020549050919050565b60006113b48233611ba9565b6113f3576040517f08c379a00000000000000000000000000000000000000000000000000000000081526004016113ea90612c9f565b60405180910390fd5b603e600083815260200190815260200160002060003373ffffffffffffffffffffffffffffffffffffffff1673ffffffffffffffffffffffffffffffffffffffff168152602001908152602001600020549050919050565b60026001541415611491576040517f08c379a000000000000000000000000000000000000000000000000000000000815260040161148890612419565b60405180910390fd5b60026001819055506036600084815260200190815260200160002060009054906101000a900473ffffffffffffffffffffffffffffffffffffffff1673ffffffffffffffffffffffffffffffffffffffff163373ffffffffffffffffffffffffffffffffffffffff161461153a576040517f08c379a000000000000000000000000000000000000000000000000000000000815260040161153190612d31565b60405180910390fd5b6000821161157d576040517f08c379a000000000000000000000000000000000000000000000000000000000815260040161157490612563565b60405180910390fd5b6000603d600085815260200190815260200160002060003373ffffffffffffffffffffffffffffffffffffffff1673ffffffffffffffffffffffffffffffffffffffff168152602001908152602001600020546115d9856108c6565b6115e39190612583565b905082811015611628576040517f08c379a000000000000000000000000000000000000000000000000000000000815260040161161f90612629565b60405180910390fd5b82603d600086815260200190815260200160002060003373ffffffffffffffffffffffffffffffffffffffff1673ffffffffffffffffffffffffffffffffffffffff16815260200190815260200160002060008282546116889190612649565b9250508190555060008273ffffffffffffffffffffffffffffffffffffffff16846040516116b5906126d0565b60006040518083038185875af1925050503d80600081146116f2576040519150601f19603f3d011682016040523d82523d6000602084013e6116f7565b606091505b505090508061173b576040517f08c379a000000000000000000000000000000000000000000000000000000000815260040161173290612731565b60405180910390fd5b505060018081905550505050565b66017c231a281af8341015611793576040517f08c379a000000000000000000000000000000000000000000000000000000000815260040161178a90612dc3565b60405180910390fd5b61179c81611c20565b6117db576040517f08c379a00000000000000000000000000000000000000000000000000000000081526004016117d290612e55565b60405180910390fd5b6000603a600083815260200190815260200160002060003373ffffffffffffffffffffffffffffffffffffffff1673ffffffffffffffffffffffffffffffffffffffff168152602001908152602001600020541461186e576040517f08c379a000000000000000000000000000000000000000000000000000000000815260040161186590612ee7565b60405180910390fd5b6118788183611ba9565b806118b6575061188781610d50565b73ffffffffffffffffffffffffffffffffffffffff168273ffffffffffffffffffffffffffffffffffffffff16145b6118f5576040517f08c379a00000000000000000000000000000000000000000000000000000000081526004016118ec90612f9f565b60405180910390fd5b60016039600083815260200190815260200160002060008282546119199190612649565b925050819055506001603c600083815260200190815260200160002060008473ffffffffffffffffffffffffffffffffffffffff1673ffffffffffffffffffffffffffffffffffffffff16815260200190815260200160002060008282546119819190612649565b9250508190555060006039600083815260200190815260200160002054905080603a600084815260200190815260200160002060003373ffffffffffffffffffffffffffffffffffffffff1673ffffffffffffffffffffffffffffffffffffffff168152602001908152602001600020819055506001811415611a2f576201adb0603b6000848152602001908152602001600020600083815260200190815260200160002081905550611b49565b610dfc8111611b1d576000806002831415611a55576201d4c091506201adb09050611abc565b603b60008581526020019081526020016000206000600285611a779190612583565b8152602001908152602001600020549150603b60008581526020019081526020016000206000600185611aaa9190612583565b81526020019081526020016000205490505b6064605b60ff168284611acf9190612583565b611ad99190612302565b611ae3919061238b565b81611aee9190612583565b603b60008681526020019081526020016000206000858152602001908152602001600020819055505050611b48565b6000603b60008481526020019081526020016000206000838152602001908152602001600020819055505b5b505050565b6000603c600084815260200190815260200160002060008373ffffffffffffffffffffffffffffffffffffffff1673ffffffffffffffffffffffffffffffffffffffff16815260200190815260200160002054905092915050565b600080603a600085815260200190815260200160002060008473ffffffffffffffffffffffffffffffffffffffff1673ffffffffffffffffffffffffffffffffffffffff1681526020019081526020016000205411905092915050565b6000611c158360000183611d10565b60001c905092915050565b60008073ffffffffffffffffffffffffffffffffffffffff166036600084815260200190815260200160002060009054906101000a900473ffffffffffffffffffffffffffffffffffffffff1673ffffffffffffffffffffffffffffffffffffffff1614159050919050565b6000611c9e836000018360001b611d3b565b905092915050565b6000611cb130611dab565b15905090565b600060019054906101000a900460ff16611d06576040517f08c379a0000000000000000000000000000000000000000000000000000000008152600401611cfd90613031565b60405180910390fd5b611d0e611dce565b565b6000826000018281548110611d2857611d27613051565b5b9060005260206000200154905092915050565b6000611d478383611e26565b611da0578260000182908060018154018082558091505060019003906000526020600020016000909190919091505582600001805490508360010160008481526020019081526020016000208190555060019050611da5565b600090505b92915050565b6000808273ffffffffffffffffffffffffffffffffffffffff163b119050919050565b600060019054906101000a900460ff16611e1d576040517f08c379a0000000000000000000000000000000000000000000000000000000008152600401611e1490613031565b60405180910390fd5b60018081905550565b600080836001016000848152602001908152602001600020541415905092915050565b828054611e55906130af565b90600052602060002090601f016020900481019282611e775760008555611ebe565b82601f10611e9057805160ff1916838001178555611ebe565b82800160010185558215611ebe579182015b82811115611ebd578251825591602001919060010190611ea2565b5b509050611ecb9190611ecf565b5090565b5b80821115611ee8576000816000905550600101611ed0565b5090565b6000604051905090565b600080fd5b600080fd5b600073ffffffffffffffffffffffffffffffffffffffff82169050919050565b6000611f2b82611f00565b9050919050565b611f3b81611f20565b8114611f4657600080fd5b50565b600081359050611f5881611f32565b92915050565b6000819050919050565b611f7181611f5e565b8114611f7c57600080fd5b50565b600081359050611f8e81611f68565b92915050565b60008060408385031215611fab57611faa611ef6565b5b6000611fb985828601611f49565b9250506020611fca85828601611f7f565b9150509250929050565b611fdd81611f5e565b82525050565b6000602082019050611ff86000830184611fd4565b92915050565b60008060006060848603121561201757612016611ef6565b5b600061202586828701611f7f565b935050602061203686828701611f7f565b925050604061204786828701611f49565b9150509250925092565b60006020828403121561206757612066611ef6565b5b600061207584828501611f7f565b91505092915050565b600080fd5b600080fd5b6000601f19601f8301169050919050565b7f4e487b7100000000000000000000000000000000000000000000000000000000600052604160045260246000fd5b6120d182612088565b810181811067ffffffffffffffff821117156120f0576120ef612099565b5b80604052505050565b6000612103611eec565b905061210f82826120c8565b919050565b600067ffffffffffffffff82111561212f5761212e612099565b5b61213882612088565b9050602081019050919050565b82818337600083830152505050565b600061216761216284612114565b6120f9565b90508281526020810184848401111561218357612182612083565b5b61218e848285612145565b509392505050565b600082601f8301126121ab576121aa61207e565b5b81356121bb848260208601612154565b91505092915050565b600080604083850312156121db576121da611ef6565b5b600083013567ffffffffffffffff8111156121f9576121f8611efb565b5b61220585828601612196565b925050602083013567ffffffffffffffff81111561222657612225611efb565b5b61223285828601612196565b9150509250929050565b61224581611f20565b82525050565b6000602082019050612260600083018461223c565b92915050565b60006020828403121561227c5761227b611ef6565b5b600061228a84828501611f49565b91505092915050565b600080604083850312156122aa576122a9611ef6565b5b60006122b885828601611f7f565b92505060206122c985828601611f49565b9150509250929050565b7f4e487b7100000000000000000000000000000000000000000000000000000000600052601160045260246000fd5b600061230d82611f5e565b915061231883611f5e565b9250817fffffffffffffffffffffffffffffffffffffffffffffffffffffffffffffffff0483118215151615612351576123506122d3565b5b828202905092915050565b7f4e487b7100000000000000000000000000000000000000000000000000000000600052601260045260246000fd5b600061239682611f5e565b91506123a183611f5e565b9250826123b1576123b061235c565b5b828204905092915050565b600082825260208201905092915050565b7f5265656e7472616e637947756172643a207265656e7472616e742063616c6c00600082015250565b6000612403601f836123bc565b915061240e826123cd565b602082019050919050565b60006020820190508181036000830152612432816123f6565b9050919050565b7f4f6e6c7920746865206f776e6572206f6620746869732073756220746f6b656e60008201527f2063616e207265717565737420746865697220726566657272616c20726f796160208201527f6c7479207061796f757473000000000000000000000000000000000000000000604082015250565b60006124bb604b836123bc565b91506124c682612439565b606082019050919050565b600060208201905081810360008301526124ea816124ae565b9050919050565b7f5061796f757420616d6f756e74206d757374206265206772656174657220746860008201527f616e203000000000000000000000000000000000000000000000000000000000602082015250565b600061254d6024836123bc565b9150612558826124f1565b604082019050919050565b6000602082019050818103600083015261257c81612540565b9050919050565b600061258e82611f5e565b915061259983611f5e565b9250828210156125ac576125ab6122d3565b5b828203905092915050565b7f43616e277420706179206f7574206d6f7265207468616e20776861742069732060008201527f6f77656420746f20796f75000000000000000000000000000000000000000000602082015250565b6000612613602b836123bc565b915061261e826125b7565b604082019050919050565b6000602082019050818103600083015261264281612606565b9050919050565b600061265482611f5e565b915061265f83611f5e565b9250827fffffffffffffffffffffffffffffffffffffffffffffffffffffffffffffffff03821115612694576126936122d3565b5b828201905092915050565b600081905092915050565b50565b60006126ba60008361269f565b91506126c5826126aa565b600082019050919050565b60006126db826126ad565b9150819050919050565b7f5472616e73666572206661696c65642e00000000000000000000000000000000600082015250565b600061271b6010836123bc565b9150612726826126e5565b602082019050919050565b6000602082019050818103600083015261274a8161270e565b9050919050565b7f4552433732313a206d696e7420746f20746865207a65726f2061646472657373600082015250565b60006127876020836123bc565b915061279282612751565b602082019050919050565b600060208201905081810360008301526127b68161277a565b9050919050565b7f4552433732313a20746f6b656e20616c7265616479206d696e74656400000000600082015250565b60006127f3601c836123bc565b91506127fe826127bd565b602082019050919050565b60006020820190508181036000830152612822816127e6565b9050919050565b7f496e697469616c697a61626c653a20636f6e747261637420697320616c72656160008201527f647920696e697469616c697a6564000000000000000000000000000000000000602082015250565b6000612885602e836123bc565b915061289082612829565b604082019050919050565b600060208201905081810360008301526128b481612878565b9050919050565b7f4552433732313a206f776e657220717565727920666f72206e6f6e657869737460008201527f656e7420746f6b656e0000000000000000000000000000000000000000000000602082015250565b60006129176029836123bc565b9150612922826128bb565b604082019050919050565b600060208201905081810360008301526129468161290a565b9050919050565b7f4552433732313a2062616c616e636520717565727920666f7220746865207a6560008201527f726f206164647265737300000000000000000000000000000000000000000000602082015250565b60006129a9602a836123bc565b91506129b48261294d565b604082019050919050565b600060208201905081810360008301526129d88161299c565b9050919050565b7f4f6e6c7920746865206f776e6572206f6620746869732073756220746f6b656e60008201527f2063616e2073656520746865697220737461636b20726577617264207061796f60208201527f7574730000000000000000000000000000000000000000000000000000000000604082015250565b6000612a616043836123bc565b9150612a6c826129df565b606082019050919050565b60006020820190508181036000830152612a9081612a54565b9050919050565b7f4f6e6c7920746865206f776e6572206f6620746869732073756220746f6b656e60008201527f2063616e207265717565737420746865697220737461636b207265776172642060208201527f7061796f75747300000000000000000000000000000000000000000000000000604082015250565b6000612b196047836123bc565b9150612b2482612a97565b606082019050919050565b60006020820190508181036000830152612b4881612b0c565b9050919050565b7f4f6e6c7920746865206f776e6572206f66207468697320636f6e74656e74207460008201527f6f6b656e2063616e2073656520746865697220726f79616c7479207061796f7560208201527f7473000000000000000000000000000000000000000000000000000000000000604082015250565b6000612bd16042836123bc565b9150612bdc82612b4f565b606082019050919050565b60006020820190508181036000830152612c0081612bc4565b9050919050565b7f4f6e6c7920746865206f776e6572206f6620746869732073756220746f6b656e60008201527f2063616e2073656520746865697220726566657272616c20726f79616c74792060208201527f7061796f75747300000000000000000000000000000000000000000000000000604082015250565b6000612c896047836123bc565b9150612c9482612c07565b606082019050919050565b60006020820190508181036000830152612cb881612c7c565b9050919050565b7f4f6e6c7920746865206f776e6572206f66207468697320636f6e74656e74207460008201527f6f6b656e2063616e207265717565737420726f79616c7479207061796f757400602082015250565b6000612d1b603f836123bc565b9150612d2682612cbf565b604082019050919050565b60006020820190508181036000830152612d4a81612d0e565b9050919050565b7f496e73756666696369656e742066756e6473207061696420746f20707572636860008201527f6173652073756220746f6b656e00000000000000000000000000000000000000602082015250565b6000612dad602d836123bc565b9150612db882612d51565b604082019050919050565b60006020820190508181036000830152612ddc81612da0565b9050919050565b7f43616e6e6f742070757263686173652061206e6f6e206578697374616e74207460008201527f6f6b656e49440000000000000000000000000000000000000000000000000000602082015250565b6000612e3f6026836123bc565b9150612e4a82612de3565b604082019050919050565b60006020820190508181036000830152612e6e81612e32565b9050919050565b7f416464726573732068617320616c72656164792070757263686173656420737560008201527f6220746f6b656e00000000000000000000000000000000000000000000000000602082015250565b6000612ed16027836123bc565b9150612edc82612e75565b604082019050919050565b60006020820190508181036000830152612f0081612ec4565b9050919050565b7f496e76616c696420726566657272657220616464726573732c206d616b65207360008201527f757265207265666572726572206f776e7320746f6b656e206f7220737562207460208201527f6f6b656e206f66207468697320746f6b656e4944000000000000000000000000604082015250565b6000612f896054836123bc565b9150612f9482612f07565b606082019050919050565b60006020820190508181036000830152612fb881612f7c565b9050919050565b7f496e697469616c697a61626c653a20636f6e7472616374206973206e6f74206960008201527f6e697469616c697a696e67000000000000000000000000000000000000000000602082015250565b600061301b602b836123bc565b915061302682612fbf565b604082019050919050565b6000602082019050818103600083015261304a8161300e565b9050919050565b7f4e487b7100000000000000000000000000000000000000000000000000000000600052603260045260246000fd5b7f4e487b7100000000000000000000000000000000000000000000000000000000600052602260045260246000fd5b600060028204905060018216806130c757607f821691505b602082108114156130db576130da613080565b5b5091905056fea2646970667358221220af2134459ff5c85e704bd9fb1276db43019c61192d20c479cfa311ce2ca3dc2a64736f6c634300080b0033",
  "linkReferences": {},
  "deployedLinkReferences": {}
}