{
  "_format": "hh-sol-artifact-1",
  "contractName": "DesubToken",
  "sourceName": "contracts/DesubToken.sol",
  "abi": [
    {
      "inputs": [
        {
          "internalType": "string",
          "name": "name_",
          "type": "string"
        },
        {
          "internalType": "string",
          "name": "symbol_",
          "type": "string"
        }
      ],
      "stateMutability": "nonpayable",
      "type": "constructor"
    },
    {
      "anonymous": false,
      "inputs": [
        {
          "indexed": true,
          "internalType": "address",
          "name": "from",
          "type": "address"
        },
        {
          "indexed": true,
          "internalType": "address",
          "name": "to",
          "type": "address"
        },
        {
          "indexed": true,
          "internalType": "uint256",
          "name": "tokenID",
          "type": "uint256"
        }
      ],
      "name": "Transfer",
      "type": "event"
    },
    {
      "inputs": [
        {
          "internalType": "address",
          "name": "tokenOwner",
          "type": "address"
        }
      ],
      "name": "balanceOf",
      "outputs": [
        {
          "internalType": "uint256",
          "name": "",
          "type": "uint256"
        }
      ],
      "stateMutability": "view",
      "type": "function"
    },
    {
      "inputs": [
        {
          "internalType": "uint256",
          "name": "tokenID",
          "type": "uint256"
        }
      ],
      "name": "getNumberOfSubTokensSoldOfTokenID",
      "outputs": [
        {
          "internalType": "uint256",
          "name": "",
          "type": "uint256"
        }
      ],
      "stateMutability": "view",
      "type": "function"
    },
    {
      "inputs": [
        {
          "internalType": "uint256",
          "name": "tokenID",
          "type": "uint256"
        },
        {
          "internalType": "address",
          "name": "purchaserAddress",
          "type": "address"
        }
      ],
      "name": "getSequenceOfPurchaseOfTokenIDByAddress",
      "outputs": [
        {
          "internalType": "uint256",
          "name": "",
          "type": "uint256"
        }
      ],
      "stateMutability": "view",
      "type": "function"
    },
    {
      "inputs": [
        {
          "internalType": "address",
          "name": "subTokenHolder",
          "type": "address"
        },
        {
          "internalType": "uint256",
          "name": "tokenID",
          "type": "uint256"
        }
      ],
      "name": "getSubTokenHolderRoyaltyBalance",
      "outputs": [
        {
          "internalType": "uint256",
          "name": "",
          "type": "uint256"
        }
      ],
      "stateMutability": "view",
      "type": "function"
    },
    {
      "inputs": [
        {
          "internalType": "uint256",
          "name": "tokenID",
          "type": "uint256"
        }
      ],
      "name": "getTokenHolderRoyaltyBalance",
      "outputs": [
        {
          "internalType": "uint256",
          "name": "",
          "type": "uint256"
        }
      ],
      "stateMutability": "view",
      "type": "function"
    },
    {
      "inputs": [
        {
          "internalType": "address",
          "name": "to",
          "type": "address"
        },
        {
          "internalType": "uint256",
          "name": "tokenID",
          "type": "uint256"
        }
      ],
      "name": "mint",
      "outputs": [],
      "stateMutability": "nonpayable",
      "type": "function"
    },
    {
      "inputs": [
        {
          "internalType": "uint256",
          "name": "tokenID",
          "type": "uint256"
        },
        {
          "internalType": "address",
          "name": "referrerAddress",
          "type": "address"
        }
      ],
      "name": "numberOfReferralsForTokenIDandAddress",
      "outputs": [
        {
          "internalType": "uint256",
          "name": "",
          "type": "uint256"
        }
      ],
      "stateMutability": "view",
      "type": "function"
    },
    {
      "inputs": [],
      "name": "owner",
      "outputs": [
        {
          "internalType": "address",
          "name": "",
          "type": "address"
        }
      ],
      "stateMutability": "view",
      "type": "function"
    },
    {
      "inputs": [
        {
          "internalType": "uint256",
          "name": "tokenID",
          "type": "uint256"
        }
      ],
      "name": "ownerOf",
      "outputs": [
        {
          "internalType": "address",
          "name": "",
          "type": "address"
        }
      ],
      "stateMutability": "view",
      "type": "function"
    },
    {
      "inputs": [
        {
          "internalType": "address",
          "name": "referrer",
          "type": "address"
        },
        {
          "internalType": "uint256",
          "name": "tokenID",
          "type": "uint256"
        }
      ],
      "name": "purchaseSubToken",
      "outputs": [],
      "stateMutability": "payable",
      "type": "function"
    },
    {
      "inputs": [
        {
          "internalType": "address",
          "name": "tokenOwner",
          "type": "address"
        },
        {
          "internalType": "uint256",
          "name": "index",
          "type": "uint256"
        }
      ],
      "name": "tokenOfOwnerByIndex",
      "outputs": [
        {
          "internalType": "uint256",
          "name": "",
          "type": "uint256"
        }
      ],
      "stateMutability": "view",
      "type": "function"
    },
    {
      "inputs": [],
      "name": "universalContentPrice",
      "outputs": [
        {
          "internalType": "uint256",
          "name": "",
          "type": "uint256"
        }
      ],
      "stateMutability": "view",
      "type": "function"
    }
  ],
  "bytecode": "0x60806040523480156200001157600080fd5b5060405162001b6538038062001b658339818101604052810190620000379190620002ff565b81600090805190602001906200004f929190620000b2565b50806001908051906020019062000068929190620000b2565b5033600260006101000a81548173ffffffffffffffffffffffffffffffffffffffff021916908373ffffffffffffffffffffffffffffffffffffffff1602179055505050620003e9565b828054620000c090620003b3565b90600052602060002090601f016020900481019282620000e4576000855562000130565b82601f10620000ff57805160ff191683800117855562000130565b8280016001018555821562000130579182015b828111156200012f57825182559160200191906001019062000112565b5b5090506200013f919062000143565b5090565b5b808211156200015e57600081600090555060010162000144565b5090565b6000604051905090565b600080fd5b600080fd5b600080fd5b600080fd5b6000601f19601f8301169050919050565b7f4e487b7100000000000000000000000000000000000000000000000000000000600052604160045260246000fd5b620001cb8262000180565b810181811067ffffffffffffffff82111715620001ed57620001ec62000191565b5b80604052505050565b60006200020262000162565b9050620002108282620001c0565b919050565b600067ffffffffffffffff82111562000233576200023262000191565b5b6200023e8262000180565b9050602081019050919050565b60005b838110156200026b5780820151818401526020810190506200024e565b838111156200027b576000848401525b50505050565b600062000298620002928462000215565b620001f6565b905082815260208101848484011115620002b757620002b66200017b565b5b620002c48482856200024b565b509392505050565b600082601f830112620002e457620002e362000176565b5b8151620002f684826020860162000281565b91505092915050565b600080604083850312156200031957620003186200016c565b5b600083015167ffffffffffffffff8111156200033a576200033962000171565b5b6200034885828601620002cc565b925050602083015167ffffffffffffffff8111156200036c576200036b62000171565b5b6200037a85828601620002cc565b9150509250929050565b7f4e487b7100000000000000000000000000000000000000000000000000000000600052602260045260246000fd5b60006002820490506001821680620003cc57607f821691505b60208210811415620003e357620003e262000384565b5b50919050565b61176c80620003f96000396000f3fe6080604052600436106100a75760003560e01c8063893466661161006457806389346666146101f45780638da5cb5b14610231578063a8c7ce031461025c578063b00add9114610299578063ed35eb7c146102d6578063f86a4ffd146102f2576100a7565b80631e3160c5146100ac5780632f745c59146100e957806340c10f19146101265780636352211e1461014f57806370a082311461018c57806388238430146101c9575b600080fd5b3480156100b857600080fd5b506100d360048036038101906100ce9190610edd565b61032f565b6040516100e09190610f2c565b60405180910390f35b3480156100f557600080fd5b50610110600480360381019061010b9190610edd565b610398565b60405161011d9190610f2c565b60405180910390f35b34801561013257600080fd5b5061014d60048036038101906101489190610edd565b6103f3565b005b34801561015b57600080fd5b5061017660048036038101906101719190610f47565b610620565b6040516101839190610f83565b60405180910390f35b34801561019857600080fd5b506101b360048036038101906101ae9190610f9e565b6106d2565b6040516101c09190610f2c565b60405180910390f35b3480156101d557600080fd5b506101de61078a565b6040516101eb9190610f2c565b60405180910390f35b34801561020057600080fd5b5061021b60048036038101906102169190610f47565b610795565b6040516102289190610f2c565b60405180910390f35b34801561023d57600080fd5b506102466107b2565b6040516102539190610f83565b60405180910390f35b34801561026857600080fd5b50610283600480360381019061027e9190610f47565b6107d8565b6040516102909190610f2c565b60405180910390f35b3480156102a557600080fd5b506102c060048036038101906102bb9190610fcb565b610860565b6040516102cd9190610f2c565b60405180910390f35b6102f060048036038101906102eb9190610edd565b6108bb565b005b3480156102fe57600080fd5b5061031960048036038101906103149190610fcb565b610b66565b6040516103269190610f2c565b60405180910390f35b60008066017c231a281af86103448486610b66565b61034e919061103a565b90506000600a8261035f91906110c3565b905061038d6040518060800160405280604581526020016116f2604591396103878688610b66565b83610bc1565b809250505092915050565b60006103eb82600460008673ffffffffffffffffffffffffffffffffffffffff1673ffffffffffffffffffffffffffffffffffffffff168152602001908152602001600020610c6090919063ffffffff16565b905092915050565b600073ffffffffffffffffffffffffffffffffffffffff168273ffffffffffffffffffffffffffffffffffffffff161415610463576040517f08c379a000000000000000000000000000000000000000000000000000000000815260040161045a90611151565b60405180910390fd5b61046c81610c7a565b156104ac576040517f08c379a00000000000000000000000000000000000000000000000000000000081526004016104a3906111bd565b60405180910390fd5b816003600083815260200190815260200160002060006101000a81548173ffffffffffffffffffffffffffffffffffffffff021916908373ffffffffffffffffffffffffffffffffffffffff1602179055506001600560008473ffffffffffffffffffffffffffffffffffffffff1673ffffffffffffffffffffffffffffffffffffffff168152602001908152602001600020600082825461054e91906111dd565b925050819055506105a681600460008573ffffffffffffffffffffffffffffffffffffffff1673ffffffffffffffffffffffffffffffffffffffff168152602001908152602001600020610ce690919063ffffffff16565b5060006006600083815260200190815260200160002081905550808273ffffffffffffffffffffffffffffffffffffffff16600073ffffffffffffffffffffffffffffffffffffffff167fddf252ad1be2c89b69c2b068fc378daa952ba7f163c4a11628f55a4df523b3ef60405160405180910390a45050565b6000806003600084815260200190815260200160002060009054906101000a900473ffffffffffffffffffffffffffffffffffffffff169050600073ffffffffffffffffffffffffffffffffffffffff168173ffffffffffffffffffffffffffffffffffffffff1614156106c9576040517f08c379a00000000000000000000000000000000000000000000000000000000081526004016106c0906112a5565b60405180910390fd5b80915050919050565b60008073ffffffffffffffffffffffffffffffffffffffff168273ffffffffffffffffffffffffffffffffffffffff161415610743576040517f08c379a000000000000000000000000000000000000000000000000000000000815260040161073a90611337565b60405180910390fd5b600560008373ffffffffffffffffffffffffffffffffffffffff1673ffffffffffffffffffffffffffffffffffffffff168152602001908152602001600020549050919050565b66017c231a281af881565b600060066000838152602001908152602001600020549050919050565b600260009054906101000a900473ffffffffffffffffffffffffffffffffffffffff1681565b60008066017c231a281af86006600085815260200190815260200160002054610801919061103a565b905060006064605083610814919061103a565b61081e91906110c3565b90506108566040518060600160405280603781526020016116bb60379139600660008781526020019081526020016000205483610bc1565b8092505050919050565b60006007600084815260200190815260200160002060008373ffffffffffffffffffffffffffffffffffffffff1673ffffffffffffffffffffffffffffffffffffffff16815260200190815260200160002054905092915050565b66017c231a281af8341015610905576040517f08c379a00000000000000000000000000000000000000000000000000000000081526004016108fc906113c9565b60405180910390fd5b61090e81610c7a565b61094d576040517f08c379a00000000000000000000000000000000000000000000000000000000081526004016109449061145b565b60405180910390fd5b60006007600083815260200190815260200160002060003373ffffffffffffffffffffffffffffffffffffffff1673ffffffffffffffffffffffffffffffffffffffff16815260200190815260200160002054146109e0576040517f08c379a00000000000000000000000000000000000000000000000000000000081526004016109d7906114ed565b60405180910390fd5b6109ea8183610d00565b80610a2857506109f981610620565b73ffffffffffffffffffffffffffffffffffffffff168273ffffffffffffffffffffffffffffffffffffffff16145b610a67576040517f08c379a0000000000000000000000000000000000000000000000000000000008152600401610a5e906115a5565b60405180910390fd5b6001600660008381526020019081526020016000206000828254610a8b91906111dd565b9250508190555060066000828152602001908152602001600020546007600083815260200190815260200160002060003373ffffffffffffffffffffffffffffffffffffffff1673ffffffffffffffffffffffffffffffffffffffff1681526020019081526020016000208190555060016008600083815260200190815260200160002060008473ffffffffffffffffffffffffffffffffffffffff1673ffffffffffffffffffffffffffffffffffffffff1681526020019081526020016000206000828254610b5b91906111dd565b925050819055505050565b60006008600084815260200190815260200160002060008373ffffffffffffffffffffffffffffffffffffffff1673ffffffffffffffffffffffffffffffffffffffff16815260200190815260200160002054905092915050565b610c5b838383604051602401610bd99392919061164d565b6040516020818303038152906040527f969cdd03000000000000000000000000000000000000000000000000000000007bffffffffffffffffffffffffffffffffffffffffffffffffffffffff19166020820180517bffffffffffffffffffffffffffffffffffffffffffffffffffffffff8381831617835250505050610d5d565b505050565b6000610c6f8360000183610d86565b60001c905092915050565b60008073ffffffffffffffffffffffffffffffffffffffff166003600084815260200190815260200160002060009054906101000a900473ffffffffffffffffffffffffffffffffffffffff1673ffffffffffffffffffffffffffffffffffffffff1614159050919050565b6000610cf8836000018360001b610db1565b905092915050565b6000806007600085815260200190815260200160002060008473ffffffffffffffffffffffffffffffffffffffff1673ffffffffffffffffffffffffffffffffffffffff1681526020019081526020016000205411905092915050565b60008151905060006a636f6e736f6c652e6c6f679050602083016000808483855afa5050505050565b6000826000018281548110610d9e57610d9d61168b565b5b9060005260206000200154905092915050565b6000610dbd8383610e21565b610e16578260000182908060018154018082558091505060019003906000526020600020016000909190919091505582600001805490508360010160008481526020019081526020016000208190555060019050610e1b565b600090505b92915050565b600080836001016000848152602001908152602001600020541415905092915050565b600080fd5b600073ffffffffffffffffffffffffffffffffffffffff82169050919050565b6000610e7482610e49565b9050919050565b610e8481610e69565b8114610e8f57600080fd5b50565b600081359050610ea181610e7b565b92915050565b6000819050919050565b610eba81610ea7565b8114610ec557600080fd5b50565b600081359050610ed781610eb1565b92915050565b60008060408385031215610ef457610ef3610e44565b5b6000610f0285828601610e92565b9250506020610f1385828601610ec8565b9150509250929050565b610f2681610ea7565b82525050565b6000602082019050610f416000830184610f1d565b92915050565b600060208284031215610f5d57610f5c610e44565b5b6000610f6b84828501610ec8565b91505092915050565b610f7d81610e69565b82525050565b6000602082019050610f986000830184610f74565b92915050565b600060208284031215610fb457610fb3610e44565b5b6000610fc284828501610e92565b91505092915050565b60008060408385031215610fe257610fe1610e44565b5b6000610ff085828601610ec8565b925050602061100185828601610e92565b9150509250929050565b7f4e487b7100000000000000000000000000000000000000000000000000000000600052601160045260246000fd5b600061104582610ea7565b915061105083610ea7565b9250817fffffffffffffffffffffffffffffffffffffffffffffffffffffffffffffffff04831182151516156110895761108861100b565b5b828202905092915050565b7f4e487b7100000000000000000000000000000000000000000000000000000000600052601260045260246000fd5b60006110ce82610ea7565b91506110d983610ea7565b9250826110e9576110e8611094565b5b828204905092915050565b600082825260208201905092915050565b7f4552433732313a206d696e7420746f20746865207a65726f2061646472657373600082015250565b600061113b6020836110f4565b915061114682611105565b602082019050919050565b6000602082019050818103600083015261116a8161112e565b9050919050565b7f4552433732313a20746f6b656e20616c7265616479206d696e74656400000000600082015250565b60006111a7601c836110f4565b91506111b282611171565b602082019050919050565b600060208201905081810360008301526111d68161119a565b9050919050565b60006111e882610ea7565b91506111f383610ea7565b9250827fffffffffffffffffffffffffffffffffffffffffffffffffffffffffffffffff038211156112285761122761100b565b5b828201905092915050565b7f4552433732313a206f776e657220717565727920666f72206e6f6e657869737460008201527f656e7420746f6b656e0000000000000000000000000000000000000000000000602082015250565b600061128f6029836110f4565b915061129a82611233565b604082019050919050565b600060208201905081810360008301526112be81611282565b9050919050565b7f4552433732313a2062616c616e636520717565727920666f7220746865207a6560008201527f726f206164647265737300000000000000000000000000000000000000000000602082015250565b6000611321602a836110f4565b915061132c826112c5565b604082019050919050565b6000602082019050818103600083015261135081611314565b9050919050565b7f496e73756666696369656e742066756e6473207061696420746f20707572636860008201527f6173652073756220746f6b656e00000000000000000000000000000000000000602082015250565b60006113b3602d836110f4565b91506113be82611357565b604082019050919050565b600060208201905081810360008301526113e2816113a6565b9050919050565b7f43616e6e6f742070757263686173652061206e6f6e206578697374616e74207460008201527f6f6b656e49440000000000000000000000000000000000000000000000000000602082015250565b60006114456026836110f4565b9150611450826113e9565b604082019050919050565b6000602082019050818103600083015261147481611438565b9050919050565b7f416464726573732068617320616c72656164792070757263686173656420737560008201527f6220746f6b656e00000000000000000000000000000000000000000000000000602082015250565b60006114d76027836110f4565b91506114e28261147b565b604082019050919050565b60006020820190508181036000830152611506816114ca565b9050919050565b7f496e76616c696420726566657272657220616464726573732c206d616b65207360008201527f757265207265666572726572206f776e7320746f6b656e206f7220737562207460208201527f6f6b656e206f66207468697320746f6b656e4944000000000000000000000000604082015250565b600061158f6054836110f4565b915061159a8261150d565b606082019050919050565b600060208201905081810360008301526115be81611582565b9050919050565b600081519050919050565b60005b838110156115ee5780820151818401526020810190506115d3565b838111156115fd576000848401525b50505050565b6000601f19601f8301169050919050565b600061161f826115c5565b61162981856110f4565b93506116398185602086016115d0565b61164281611603565b840191505092915050565b600060608201905081810360008301526116678186611614565b90506116766020830185610f1d565b6116836040830184610f1d565b949350505050565b7f4e487b7100000000000000000000000000000000000000000000000000000000600052603260045260246000fdfe25732073756220746f6b656e2073616c65732067656e65726174652025732077656920666f722074686520746f6b656e20686f6c64657225732073756220746f6b656e2073616c65732067656e65726174652025732077656920666f722074686520726566657272696e672073756220746f6b656e20686f6c646572a26469706673582212209a9d14bdb10bab6a54eb6c1f86e34c4bb66f551d399f900ddaf9c36f9367ba7164736f6c634300080b0033",
  "linkReferences": {},
  "deployedLinkReferences": {}
}