{
  "_format": "hh-sol-artifact-1",
  "contractName": "DesubToken",
  "sourceName": "contracts/DesubToken.sol",
  "abi": [
    {
      "inputs": [
        {
          "internalType": "string",
          "name": "name_",
          "type": "string"
        },
        {
          "internalType": "string",
          "name": "symbol_",
          "type": "string"
        }
      ],
      "stateMutability": "nonpayable",
      "type": "constructor"
    },
    {
      "anonymous": false,
      "inputs": [
        {
          "indexed": true,
          "internalType": "address",
          "name": "from",
          "type": "address"
        },
        {
          "indexed": true,
          "internalType": "address",
          "name": "to",
          "type": "address"
        },
        {
          "indexed": true,
          "internalType": "uint256",
          "name": "tokenID",
          "type": "uint256"
        }
      ],
      "name": "Transfer",
      "type": "event"
    },
    {
      "inputs": [
        {
          "internalType": "address",
          "name": "tokenOwner",
          "type": "address"
        }
      ],
      "name": "balanceOf",
      "outputs": [
        {
          "internalType": "uint256",
          "name": "",
          "type": "uint256"
        }
      ],
      "stateMutability": "view",
      "type": "function"
    },
    {
      "inputs": [
        {
          "internalType": "uint256",
          "name": "tokenID",
          "type": "uint256"
        }
      ],
      "name": "getNumberOfSubTokensSoldOfTokenID",
      "outputs": [
        {
          "internalType": "uint256",
          "name": "",
          "type": "uint256"
        }
      ],
      "stateMutability": "view",
      "type": "function"
    },
    {
      "inputs": [
        {
          "internalType": "uint256",
          "name": "tokenID",
          "type": "uint256"
        },
        {
          "internalType": "address",
          "name": "purchaserAddress",
          "type": "address"
        }
      ],
      "name": "getSequenceOfPurchaseOfTokenIDByAddress",
      "outputs": [
        {
          "internalType": "uint256",
          "name": "",
          "type": "uint256"
        }
      ],
      "stateMutability": "view",
      "type": "function"
    },
    {
      "inputs": [
        {
          "internalType": "uint256",
          "name": "tokenID",
          "type": "uint256"
        }
      ],
      "name": "getSubTokenHolderReferralRoyaltyPaidOut",
      "outputs": [
        {
          "internalType": "uint256",
          "name": "",
          "type": "uint256"
        }
      ],
      "stateMutability": "view",
      "type": "function"
    },
    {
      "inputs": [
        {
          "internalType": "address",
          "name": "subTokenHolder",
          "type": "address"
        },
        {
          "internalType": "uint256",
          "name": "tokenID",
          "type": "uint256"
        }
      ],
      "name": "getSubTokenHolderRoyaltyBalance",
      "outputs": [
        {
          "internalType": "uint256",
          "name": "",
          "type": "uint256"
        }
      ],
      "stateMutability": "view",
      "type": "function"
    },
    {
      "inputs": [
        {
          "internalType": "uint256",
          "name": "tokenID",
          "type": "uint256"
        }
      ],
      "name": "getSubTokenHolderStackRewardPaidOut",
      "outputs": [
        {
          "internalType": "uint256",
          "name": "",
          "type": "uint256"
        }
      ],
      "stateMutability": "view",
      "type": "function"
    },
    {
      "inputs": [
        {
          "internalType": "address",
          "name": "subTokenHolder",
          "type": "address"
        },
        {
          "internalType": "uint256",
          "name": "tokenID",
          "type": "uint256"
        }
      ],
      "name": "getSubTokenHolderStackRewardPct",
      "outputs": [
        {
          "internalType": "uint256",
          "name": "",
          "type": "uint256"
        }
      ],
      "stateMutability": "view",
      "type": "function"
    },
    {
      "inputs": [
        {
          "internalType": "address",
          "name": "subTokenHolder",
          "type": "address"
        },
        {
          "internalType": "uint256",
          "name": "tokenID",
          "type": "uint256"
        }
      ],
      "name": "getSubTokenHolderTotalStackReward",
      "outputs": [
        {
          "internalType": "uint256",
          "name": "",
          "type": "uint256"
        }
      ],
      "stateMutability": "view",
      "type": "function"
    },
    {
      "inputs": [
        {
          "internalType": "uint256",
          "name": "tokenID",
          "type": "uint256"
        }
      ],
      "name": "getTokenHolderRoyaltyGrossTotal",
      "outputs": [
        {
          "internalType": "uint256",
          "name": "",
          "type": "uint256"
        }
      ],
      "stateMutability": "view",
      "type": "function"
    },
    {
      "inputs": [
        {
          "internalType": "uint256",
          "name": "tokenID",
          "type": "uint256"
        }
      ],
      "name": "getTokenHolderRoyaltyPaidOut",
      "outputs": [
        {
          "internalType": "uint256",
          "name": "",
          "type": "uint256"
        }
      ],
      "stateMutability": "view",
      "type": "function"
    },
    {
      "inputs": [
        {
          "internalType": "address",
          "name": "to",
          "type": "address"
        },
        {
          "internalType": "uint256",
          "name": "tokenID",
          "type": "uint256"
        }
      ],
      "name": "mint",
      "outputs": [],
      "stateMutability": "nonpayable",
      "type": "function"
    },
    {
      "inputs": [
        {
          "internalType": "uint256",
          "name": "tokenID",
          "type": "uint256"
        },
        {
          "internalType": "address",
          "name": "referrerAddress",
          "type": "address"
        }
      ],
      "name": "numberOfReferralsForTokenIDandAddress",
      "outputs": [
        {
          "internalType": "uint256",
          "name": "",
          "type": "uint256"
        }
      ],
      "stateMutability": "view",
      "type": "function"
    },
    {
      "inputs": [],
      "name": "owner",
      "outputs": [
        {
          "internalType": "address",
          "name": "",
          "type": "address"
        }
      ],
      "stateMutability": "view",
      "type": "function"
    },
    {
      "inputs": [
        {
          "internalType": "uint256",
          "name": "tokenID",
          "type": "uint256"
        }
      ],
      "name": "ownerOf",
      "outputs": [
        {
          "internalType": "address",
          "name": "",
          "type": "address"
        }
      ],
      "stateMutability": "view",
      "type": "function"
    },
    {
      "inputs": [
        {
          "internalType": "uint256",
          "name": "tokenID",
          "type": "uint256"
        },
        {
          "internalType": "uint256",
          "name": "amount",
          "type": "uint256"
        },
        {
          "internalType": "address",
          "name": "to",
          "type": "address"
        }
      ],
      "name": "payOutSubTokenHolderReferralRoyalty",
      "outputs": [],
      "stateMutability": "nonpayable",
      "type": "function"
    },
    {
      "inputs": [
        {
          "internalType": "uint256",
          "name": "tokenID",
          "type": "uint256"
        },
        {
          "internalType": "uint256",
          "name": "amount",
          "type": "uint256"
        },
        {
          "internalType": "address",
          "name": "to",
          "type": "address"
        }
      ],
      "name": "payOutSubTokenHolderStackReward",
      "outputs": [],
      "stateMutability": "nonpayable",
      "type": "function"
    },
    {
      "inputs": [
        {
          "internalType": "uint256",
          "name": "tokenID",
          "type": "uint256"
        },
        {
          "internalType": "uint256",
          "name": "amount",
          "type": "uint256"
        },
        {
          "internalType": "address",
          "name": "to",
          "type": "address"
        }
      ],
      "name": "payOutTokenHolderRoyalty",
      "outputs": [],
      "stateMutability": "nonpayable",
      "type": "function"
    },
    {
      "inputs": [
        {
          "internalType": "address",
          "name": "referrer",
          "type": "address"
        },
        {
          "internalType": "uint256",
          "name": "tokenID",
          "type": "uint256"
        }
      ],
      "name": "purchaseSubToken",
      "outputs": [],
      "stateMutability": "payable",
      "type": "function"
    },
    {
      "inputs": [
        {
          "internalType": "address",
          "name": "tokenOwner",
          "type": "address"
        },
        {
          "internalType": "uint256",
          "name": "index",
          "type": "uint256"
        }
      ],
      "name": "tokenOfOwnerByIndex",
      "outputs": [
        {
          "internalType": "uint256",
          "name": "",
          "type": "uint256"
        }
      ],
      "stateMutability": "view",
      "type": "function"
    },
    {
      "inputs": [],
      "name": "universalContentPrice",
      "outputs": [
        {
          "internalType": "uint256",
          "name": "",
          "type": "uint256"
        }
      ],
      "stateMutability": "view",
      "type": "function"
    }
  ],
  "bytecode": "0x60806040523480156200001157600080fd5b50604051620032f7380380620032f7833981810160405281019062000037919062000307565b6001600081905550816001908051906020019062000057929190620000ba565b50806002908051906020019062000070929190620000ba565b5033600360006101000a81548173ffffffffffffffffffffffffffffffffffffffff021916908373ffffffffffffffffffffffffffffffffffffffff1602179055505050620003f1565b828054620000c890620003bb565b90600052602060002090601f016020900481019282620000ec576000855562000138565b82601f106200010757805160ff191683800117855562000138565b8280016001018555821562000138579182015b82811115620001375782518255916020019190600101906200011a565b5b5090506200014791906200014b565b5090565b5b80821115620001665760008160009055506001016200014c565b5090565b6000604051905090565b600080fd5b600080fd5b600080fd5b600080fd5b6000601f19601f8301169050919050565b7f4e487b7100000000000000000000000000000000000000000000000000000000600052604160045260246000fd5b620001d38262000188565b810181811067ffffffffffffffff82111715620001f557620001f462000199565b5b80604052505050565b60006200020a6200016a565b9050620002188282620001c8565b919050565b600067ffffffffffffffff8211156200023b576200023a62000199565b5b620002468262000188565b9050602081019050919050565b60005b838110156200027357808201518184015260208101905062000256565b8381111562000283576000848401525b50505050565b6000620002a06200029a846200021d565b620001fe565b905082815260208101848484011115620002bf57620002be62000183565b5b620002cc84828562000253565b509392505050565b600082601f830112620002ec57620002eb6200017e565b5b8151620002fe84826020860162000289565b91505092915050565b6000806040838503121562000321576200032062000174565b5b600083015167ffffffffffffffff81111562000342576200034162000179565b5b6200035085828601620002d4565b925050602083015167ffffffffffffffff81111562000374576200037362000179565b5b6200038285828601620002d4565b9150509250929050565b7f4e487b7100000000000000000000000000000000000000000000000000000000600052602260045260246000fd5b60006002820490506001821680620003d457607f821691505b60208210811415620003eb57620003ea6200038c565b5b50919050565b612ef680620004016000396000f3fe60806040526004361061011f5760003560e01c806388238430116100a0578063bb55167811610064578063bb55167814610457578063c975a72214610494578063e168818f146104d1578063ed35eb7c146104fa578063f86a4ffd146105165761011f565b8063882384301461035e57806389346666146103895780638da5cb5b146103c657806396f29001146103f1578063b00add911461041a5761011f565b806340c10f19116100e757806340c10f19146102415780634bcd21191461026a5780636352211e146102a757806370a08231146102e45780637edd47a1146103215761011f565b80631e3160c5146101245780631eec26d3146101615780632f745c591461018a57806334eee17a146101c75780633b17b62714610204575b600080fd5b34801561013057600080fd5b5061014b60048036038101906101469190611eff565b610553565b6040516101589190611f4e565b60405180910390f35b34801561016d57600080fd5b5061018860048036038101906101839190611f69565b6105bc565b005b34801561019657600080fd5b506101b160048036038101906101ac9190611eff565b610864565b6040516101be9190611f4e565b60405180910390f35b3480156101d357600080fd5b506101ee60048036038101906101e99190611fbc565b6108bf565b6040516101fb9190611f4e565b60405180910390f35b34801561021057600080fd5b5061022b60048036038101906102269190611eff565b610947565b6040516102389190611f4e565b60405180910390f35b34801561024d57600080fd5b5061026860048036038101906102639190611eff565b6109f8565b005b34801561027657600080fd5b50610291600480360381019061028c9190611eff565b610c25565b60405161029e9190611f4e565b60405180910390f35b3480156102b357600080fd5b506102ce60048036038101906102c99190611fbc565b610ca9565b6040516102db9190611ff8565b60405180910390f35b3480156102f057600080fd5b5061030b60048036038101906103069190612013565b610d5b565b6040516103189190611f4e565b60405180910390f35b34801561032d57600080fd5b5061034860048036038101906103439190611fbc565b610e13565b6040516103559190611f4e565b60405180910390f35b34801561036a57600080fd5b50610373610eb6565b6040516103809190611f4e565b60405180910390f35b34801561039557600080fd5b506103b060048036038101906103ab9190611fbc565b610ec1565b6040516103bd9190611f4e565b60405180910390f35b3480156103d257600080fd5b506103db610ede565b6040516103e89190611ff8565b60405180910390f35b3480156103fd57600080fd5b5061041860048036038101906104139190611f69565b610f04565b005b34801561042657600080fd5b50610441600480360381019061043c9190612040565b6111ac565b60405161044e9190611f4e565b60405180910390f35b34801561046357600080fd5b5061047e60048036038101906104799190611fbc565b611207565b60405161048b9190611f4e565b60405180910390f35b3480156104a057600080fd5b506104bb60048036038101906104b69190611fbc565b611302565b6040516104c89190611f4e565b60405180910390f35b3480156104dd57600080fd5b506104f860048036038101906104f39190611f69565b6113a5565b005b610514600480360381019061050f9190611eff565b6116e4565b005b34801561052257600080fd5b5061053d60048036038101906105389190612040565b611ae9565b60405161054a9190611f4e565b60405180910390f35b60008066017c231a281af86105688486611ae9565b61057291906120af565b90506000600a826105839190612138565b90506105b1604051806080016040528060458152602001612e7c604591396105ab8688611ae9565b83611b44565b809250505092915050565b60026000541415610602576040517f08c379a00000000000000000000000000000000000000000000000000000000081526004016105f9906121c6565b60405180910390fd5b60026000819055506106148333611be3565b610653576040517f08c379a000000000000000000000000000000000000000000000000000000000815260040161064a9061227e565b60405180910390fd5b60008211610696576040517f08c379a000000000000000000000000000000000000000000000000000000000815260040161068d90612310565b60405180910390fd5b6000600c600085815260200190815260200160002060003373ffffffffffffffffffffffffffffffffffffffff1673ffffffffffffffffffffffffffffffffffffffff168152602001908152602001600020546106f33386610553565b6106fd9190612330565b905082811015610742576040517f08c379a0000000000000000000000000000000000000000000000000000000008152600401610739906123d6565b60405180910390fd5b82600c600086815260200190815260200160002060003373ffffffffffffffffffffffffffffffffffffffff1673ffffffffffffffffffffffffffffffffffffffff16815260200190815260200160002060008282546107a291906123f6565b9250508190555060008273ffffffffffffffffffffffffffffffffffffffff16846040516107cf9061247d565b60006040518083038185875af1925050503d806000811461080c576040519150601f19603f3d011682016040523d82523d6000602084013e610811565b606091505b5050905080610855576040517f08c379a000000000000000000000000000000000000000000000000000000000815260040161084c906124de565b60405180910390fd5b50506001600081905550505050565b60006108b782600560008673ffffffffffffffffffffffffffffffffffffffff1673ffffffffffffffffffffffffffffffffffffffff168152602001908152602001600020611c4090919063ffffffff16565b905092915050565b60008066017c231a281af860076000858152602001908152602001600020546108e891906120af565b9050600060646050836108fb91906120af565b6109059190612138565b905061093d604051806060016040528060378152602001612e0e60379139600760008781526020019081526020016000205483611b44565b8092505050919050565b6000806109548484610c25565b9050600066017c231a281af8600760008681526020019081526020016000205461097e91906120af565b90506000640684ee1800604b848461099691906120af565b6109a091906120af565b6109aa9190612138565b90506109ec6040518060400160405280601e81526020017f25732069732074686520726577617264206f662074686520257320706f7400008152508284611b44565b80935050505092915050565b600073ffffffffffffffffffffffffffffffffffffffff168273ffffffffffffffffffffffffffffffffffffffff161415610a68576040517f08c379a0000000000000000000000000000000000000000000000000000000008152600401610a5f9061254a565b60405180910390fd5b610a7181611c5a565b15610ab1576040517f08c379a0000000000000000000000000000000000000000000000000000000008152600401610aa8906125b6565b60405180910390fd5b816004600083815260200190815260200160002060006101000a81548173ffffffffffffffffffffffffffffffffffffffff021916908373ffffffffffffffffffffffffffffffffffffffff1602179055506001600660008473ffffffffffffffffffffffffffffffffffffffff1673ffffffffffffffffffffffffffffffffffffffff1681526020019081526020016000206000828254610b5391906123f6565b92505081905550610bab81600560008573ffffffffffffffffffffffffffffffffffffffff1673ffffffffffffffffffffffffffffffffffffffff168152602001908152602001600020611cc690919063ffffffff16565b5060006007600083815260200190815260200160002081905550808273ffffffffffffffffffffffffffffffffffffffff16600073ffffffffffffffffffffffffffffffffffffffff167fddf252ad1be2c89b69c2b068fc378daa952ba7f163c4a11628f55a4df523b3ef60405160405180910390a45050565b600080610c3283856111ac565b9050610c7b604051806060016040528060378152602001612e45603791396009600086815260200190815260200160002060008481526020019081526020016000205483611b44565b6009600084815260200190815260200160002060008281526020019081526020016000205491505092915050565b6000806004600084815260200190815260200160002060009054906101000a900473ffffffffffffffffffffffffffffffffffffffff169050600073ffffffffffffffffffffffffffffffffffffffff168173ffffffffffffffffffffffffffffffffffffffff161415610d52576040517f08c379a0000000000000000000000000000000000000000000000000000000008152600401610d4990612648565b60405180910390fd5b80915050919050565b60008073ffffffffffffffffffffffffffffffffffffffff168273ffffffffffffffffffffffffffffffffffffffff161415610dcc576040517f08c379a0000000000000000000000000000000000000000000000000000000008152600401610dc3906126da565b60405180910390fd5b600660008373ffffffffffffffffffffffffffffffffffffffff1673ffffffffffffffffffffffffffffffffffffffff168152602001908152602001600020549050919050565b6000610e1f8233611be3565b610e5e576040517f08c379a0000000000000000000000000000000000000000000000000000000008152600401610e5590612792565b60405180910390fd5b600d600083815260200190815260200160002060003373ffffffffffffffffffffffffffffffffffffffff1673ffffffffffffffffffffffffffffffffffffffff168152602001908152602001600020549050919050565b66017c231a281af881565b600060076000838152602001908152602001600020549050919050565b600360009054906101000a900473ffffffffffffffffffffffffffffffffffffffff1681565b60026000541415610f4a576040517f08c379a0000000000000000000000000000000000000000000000000000000008152600401610f41906121c6565b60405180910390fd5b6002600081905550610f5c8333611be3565b610f9b576040517f08c379a0000000000000000000000000000000000000000000000000000000008152600401610f929061284a565b60405180910390fd5b60008211610fde576040517f08c379a0000000000000000000000000000000000000000000000000000000008152600401610fd590612310565b60405180910390fd5b6000600d600085815260200190815260200160002060003373ffffffffffffffffffffffffffffffffffffffff1673ffffffffffffffffffffffffffffffffffffffff1681526020019081526020016000205461103b3386610947565b6110459190612330565b90508281101561108a576040517f08c379a0000000000000000000000000000000000000000000000000000000008152600401611081906123d6565b60405180910390fd5b82600d600086815260200190815260200160002060003373ffffffffffffffffffffffffffffffffffffffff1673ffffffffffffffffffffffffffffffffffffffff16815260200190815260200160002060008282546110ea91906123f6565b9250508190555060008273ffffffffffffffffffffffffffffffffffffffff16846040516111179061247d565b60006040518083038185875af1925050503d8060008114611154576040519150601f19603f3d011682016040523d82523d6000602084013e611159565b606091505b505090508061119d576040517f08c379a0000000000000000000000000000000000000000000000000000000008152600401611194906124de565b60405180910390fd5b50506001600081905550505050565b60006008600084815260200190815260200160002060008373ffffffffffffffffffffffffffffffffffffffff1673ffffffffffffffffffffffffffffffffffffffff16815260200190815260200160002054905092915050565b60006004600083815260200190815260200160002060009054906101000a900473ffffffffffffffffffffffffffffffffffffffff1673ffffffffffffffffffffffffffffffffffffffff163373ffffffffffffffffffffffffffffffffffffffff16146112aa576040517f08c379a00000000000000000000000000000000000000000000000000000000081526004016112a190612902565b60405180910390fd5b600b600083815260200190815260200160002060003373ffffffffffffffffffffffffffffffffffffffff1673ffffffffffffffffffffffffffffffffffffffff168152602001908152602001600020549050919050565b600061130e8233611be3565b61134d576040517f08c379a0000000000000000000000000000000000000000000000000000000008152600401611344906129ba565b60405180910390fd5b600c600083815260200190815260200160002060003373ffffffffffffffffffffffffffffffffffffffff1673ffffffffffffffffffffffffffffffffffffffff168152602001908152602001600020549050919050565b600260005414156113eb576040517f08c379a00000000000000000000000000000000000000000000000000000000081526004016113e2906121c6565b60405180910390fd5b60026000819055506004600084815260200190815260200160002060009054906101000a900473ffffffffffffffffffffffffffffffffffffffff1673ffffffffffffffffffffffffffffffffffffffff163373ffffffffffffffffffffffffffffffffffffffff1614611494576040517f08c379a000000000000000000000000000000000000000000000000000000000815260040161148b90612a4c565b60405180910390fd5b600082116114d7576040517f08c379a00000000000000000000000000000000000000000000000000000000081526004016114ce90612310565b60405180910390fd5b6000600b600085815260200190815260200160002060003373ffffffffffffffffffffffffffffffffffffffff1673ffffffffffffffffffffffffffffffffffffffff16815260200190815260200160002054611533856108bf565b61153d9190612330565b905061157f6040518060400160405280601081526020017f2573206973206f77656420746f202573000000000000000000000000000000008152508233611ce0565b828110156115c2576040517f08c379a00000000000000000000000000000000000000000000000000000000081526004016115b9906123d6565b60405180910390fd5b82600b600086815260200190815260200160002060003373ffffffffffffffffffffffffffffffffffffffff1673ffffffffffffffffffffffffffffffffffffffff168152602001908152602001600020600082825461162291906123f6565b9250508190555060008273ffffffffffffffffffffffffffffffffffffffff168460405161164f9061247d565b60006040518083038185875af1925050503d806000811461168c576040519150601f19603f3d011682016040523d82523d6000602084013e611691565b606091505b50509050806116d5576040517f08c379a00000000000000000000000000000000000000000000000000000000081526004016116cc906124de565b60405180910390fd5b50506001600081905550505050565b66017c231a281af834101561172e576040517f08c379a000000000000000000000000000000000000000000000000000000000815260040161172590612ade565b60405180910390fd5b61173781611c5a565b611776576040517f08c379a000000000000000000000000000000000000000000000000000000000815260040161176d90612b70565b60405180910390fd5b60006008600083815260200190815260200160002060003373ffffffffffffffffffffffffffffffffffffffff1673ffffffffffffffffffffffffffffffffffffffff1681526020019081526020016000205414611809576040517f08c379a000000000000000000000000000000000000000000000000000000000815260040161180090612c02565b60405180910390fd5b6118138183611be3565b80611851575061182281610ca9565b73ffffffffffffffffffffffffffffffffffffffff168273ffffffffffffffffffffffffffffffffffffffff16145b611890576040517f08c379a000000000000000000000000000000000000000000000000000000000815260040161188790612cba565b60405180910390fd5b60016007600083815260200190815260200160002060008282546118b491906123f6565b925050819055506001600a600083815260200190815260200160002060008473ffffffffffffffffffffffffffffffffffffffff1673ffffffffffffffffffffffffffffffffffffffff168152602001908152602001600020600082825461191c91906123f6565b92505081905550600060076000838152602001908152602001600020549050806008600084815260200190815260200160002060003373ffffffffffffffffffffffffffffffffffffffff1673ffffffffffffffffffffffffffffffffffffffff1681526020019081526020016000208190555060018114156119ca576201adb060096000848152602001908152602001600020600083815260200190815260200160002081905550611ae4565b610dfc8111611ab85760008060028314156119f0576201d4c091506201adb09050611a57565b600960008581526020019081526020016000206000600285611a129190612330565b8152602001908152602001600020549150600960008581526020019081526020016000206000600185611a459190612330565b81526020019081526020016000205490505b6064605b60ff168284611a6a9190612330565b611a7491906120af565b611a7e9190612138565b81611a899190612330565b600960008681526020019081526020016000206000858152602001908152602001600020819055505050611ae3565b6000600960008481526020019081526020016000206000838152602001908152602001600020819055505b5b505050565b6000600a600084815260200190815260200160002060008373ffffffffffffffffffffffffffffffffffffffff1673ffffffffffffffffffffffffffffffffffffffff16815260200190815260200160002054905092915050565b611bde838383604051602401611b5c93929190612d62565b6040516020818303038152906040527f969cdd03000000000000000000000000000000000000000000000000000000007bffffffffffffffffffffffffffffffffffffffffffffffffffffffff19166020820180517bffffffffffffffffffffffffffffffffffffffffffffffffffffffff8381831617835250505050611d7f565b505050565b6000806008600085815260200190815260200160002060008473ffffffffffffffffffffffffffffffffffffffff1673ffffffffffffffffffffffffffffffffffffffff1681526020019081526020016000205411905092915050565b6000611c4f8360000183611da8565b60001c905092915050565b60008073ffffffffffffffffffffffffffffffffffffffff166004600084815260200190815260200160002060009054906101000a900473ffffffffffffffffffffffffffffffffffffffff1673ffffffffffffffffffffffffffffffffffffffff1614159050919050565b6000611cd8836000018360001b611dd3565b905092915050565b611d7a838383604051602401611cf893929190612da0565b6040516020818303038152906040527fe3849f79000000000000000000000000000000000000000000000000000000007bffffffffffffffffffffffffffffffffffffffffffffffffffffffff19166020820180517bffffffffffffffffffffffffffffffffffffffffffffffffffffffff8381831617835250505050611d7f565b505050565b60008151905060006a636f6e736f6c652e6c6f679050602083016000808483855afa5050505050565b6000826000018281548110611dc057611dbf612dde565b5b9060005260206000200154905092915050565b6000611ddf8383611e43565b611e38578260000182908060018154018082558091505060019003906000526020600020016000909190919091505582600001805490508360010160008481526020019081526020016000208190555060019050611e3d565b600090505b92915050565b600080836001016000848152602001908152602001600020541415905092915050565b600080fd5b600073ffffffffffffffffffffffffffffffffffffffff82169050919050565b6000611e9682611e6b565b9050919050565b611ea681611e8b565b8114611eb157600080fd5b50565b600081359050611ec381611e9d565b92915050565b6000819050919050565b611edc81611ec9565b8114611ee757600080fd5b50565b600081359050611ef981611ed3565b92915050565b60008060408385031215611f1657611f15611e66565b5b6000611f2485828601611eb4565b9250506020611f3585828601611eea565b9150509250929050565b611f4881611ec9565b82525050565b6000602082019050611f636000830184611f3f565b92915050565b600080600060608486031215611f8257611f81611e66565b5b6000611f9086828701611eea565b9350506020611fa186828701611eea565b9250506040611fb286828701611eb4565b9150509250925092565b600060208284031215611fd257611fd1611e66565b5b6000611fe084828501611eea565b91505092915050565b611ff281611e8b565b82525050565b600060208201905061200d6000830184611fe9565b92915050565b60006020828403121561202957612028611e66565b5b600061203784828501611eb4565b91505092915050565b6000806040838503121561205757612056611e66565b5b600061206585828601611eea565b925050602061207685828601611eb4565b9150509250929050565b7f4e487b7100000000000000000000000000000000000000000000000000000000600052601160045260246000fd5b60006120ba82611ec9565b91506120c583611ec9565b9250817fffffffffffffffffffffffffffffffffffffffffffffffffffffffffffffffff04831182151516156120fe576120fd612080565b5b828202905092915050565b7f4e487b7100000000000000000000000000000000000000000000000000000000600052601260045260246000fd5b600061214382611ec9565b915061214e83611ec9565b92508261215e5761215d612109565b5b828204905092915050565b600082825260208201905092915050565b7f5265656e7472616e637947756172643a207265656e7472616e742063616c6c00600082015250565b60006121b0601f83612169565b91506121bb8261217a565b602082019050919050565b600060208201905081810360008301526121df816121a3565b9050919050565b7f4f6e6c7920746865206f776e6572206f6620746869732073756220746f6b656e60008201527f2063616e207265717565737420746865697220726566657272616c20726f796160208201527f6c7479207061796f757473000000000000000000000000000000000000000000604082015250565b6000612268604b83612169565b9150612273826121e6565b606082019050919050565b600060208201905081810360008301526122978161225b565b9050919050565b7f5061796f757420616d6f756e74206d757374206265206772656174657220746860008201527f616e203000000000000000000000000000000000000000000000000000000000602082015250565b60006122fa602483612169565b91506123058261229e565b604082019050919050565b60006020820190508181036000830152612329816122ed565b9050919050565b600061233b82611ec9565b915061234683611ec9565b92508282101561235957612358612080565b5b828203905092915050565b7f43616e277420706179206f7574206d6f7265207468616e20776861742069732060008201527f6f77656420746f20796f75000000000000000000000000000000000000000000602082015250565b60006123c0602b83612169565b91506123cb82612364565b604082019050919050565b600060208201905081810360008301526123ef816123b3565b9050919050565b600061240182611ec9565b915061240c83611ec9565b9250827fffffffffffffffffffffffffffffffffffffffffffffffffffffffffffffffff0382111561244157612440612080565b5b828201905092915050565b600081905092915050565b50565b600061246760008361244c565b915061247282612457565b600082019050919050565b60006124888261245a565b9150819050919050565b7f5472616e73666572206661696c65642e00000000000000000000000000000000600082015250565b60006124c8601083612169565b91506124d382612492565b602082019050919050565b600060208201905081810360008301526124f7816124bb565b9050919050565b7f4552433732313a206d696e7420746f20746865207a65726f2061646472657373600082015250565b6000612534602083612169565b915061253f826124fe565b602082019050919050565b6000602082019050818103600083015261256381612527565b9050919050565b7f4552433732313a20746f6b656e20616c7265616479206d696e74656400000000600082015250565b60006125a0601c83612169565b91506125ab8261256a565b602082019050919050565b600060208201905081810360008301526125cf81612593565b9050919050565b7f4552433732313a206f776e657220717565727920666f72206e6f6e657869737460008201527f656e7420746f6b656e0000000000000000000000000000000000000000000000602082015250565b6000612632602983612169565b915061263d826125d6565b604082019050919050565b6000602082019050818103600083015261266181612625565b9050919050565b7f4552433732313a2062616c616e636520717565727920666f7220746865207a6560008201527f726f206164647265737300000000000000000000000000000000000000000000602082015250565b60006126c4602a83612169565b91506126cf82612668565b604082019050919050565b600060208201905081810360008301526126f3816126b7565b9050919050565b7f4f6e6c7920746865206f776e6572206f6620746869732073756220746f6b656e60008201527f2063616e2073656520746865697220737461636b20726577617264207061796f60208201527f7574730000000000000000000000000000000000000000000000000000000000604082015250565b600061277c604383612169565b9150612787826126fa565b606082019050919050565b600060208201905081810360008301526127ab8161276f565b9050919050565b7f4f6e6c7920746865206f776e6572206f6620746869732073756220746f6b656e60008201527f2063616e207265717565737420746865697220737461636b207265776172642060208201527f7061796f75747300000000000000000000000000000000000000000000000000604082015250565b6000612834604783612169565b915061283f826127b2565b606082019050919050565b6000602082019050818103600083015261286381612827565b9050919050565b7f4f6e6c7920746865206f776e6572206f66207468697320636f6e74656e74207460008201527f6f6b656e2063616e2073656520746865697220726f79616c7479207061796f7560208201527f7473000000000000000000000000000000000000000000000000000000000000604082015250565b60006128ec604283612169565b91506128f78261286a565b606082019050919050565b6000602082019050818103600083015261291b816128df565b9050919050565b7f4f6e6c7920746865206f776e6572206f6620746869732073756220746f6b656e60008201527f2063616e2073656520746865697220726566657272616c20726f79616c74792060208201527f7061796f75747300000000000000000000000000000000000000000000000000604082015250565b60006129a4604783612169565b91506129af82612922565b606082019050919050565b600060208201905081810360008301526129d381612997565b9050919050565b7f4f6e6c7920746865206f776e6572206f66207468697320636f6e74656e74207460008201527f6f6b656e2063616e207265717565737420726f79616c7479207061796f757400602082015250565b6000612a36603f83612169565b9150612a41826129da565b604082019050919050565b60006020820190508181036000830152612a6581612a29565b9050919050565b7f496e73756666696369656e742066756e6473207061696420746f20707572636860008201527f6173652073756220746f6b656e00000000000000000000000000000000000000602082015250565b6000612ac8602d83612169565b9150612ad382612a6c565b604082019050919050565b60006020820190508181036000830152612af781612abb565b9050919050565b7f43616e6e6f742070757263686173652061206e6f6e206578697374616e74207460008201527f6f6b656e49440000000000000000000000000000000000000000000000000000602082015250565b6000612b5a602683612169565b9150612b6582612afe565b604082019050919050565b60006020820190508181036000830152612b8981612b4d565b9050919050565b7f416464726573732068617320616c72656164792070757263686173656420737560008201527f6220746f6b656e00000000000000000000000000000000000000000000000000602082015250565b6000612bec602783612169565b9150612bf782612b90565b604082019050919050565b60006020820190508181036000830152612c1b81612bdf565b9050919050565b7f496e76616c696420726566657272657220616464726573732c206d616b65207360008201527f757265207265666572726572206f776e7320746f6b656e206f7220737562207460208201527f6f6b656e206f66207468697320746f6b656e4944000000000000000000000000604082015250565b6000612ca4605483612169565b9150612caf82612c22565b606082019050919050565b60006020820190508181036000830152612cd381612c97565b9050919050565b600081519050919050565b60005b83811015612d03578082015181840152602081019050612ce8565b83811115612d12576000848401525b50505050565b6000601f19601f8301169050919050565b6000612d3482612cda565b612d3e8185612169565b9350612d4e818560208601612ce5565b612d5781612d18565b840191505092915050565b60006060820190508181036000830152612d7c8186612d29565b9050612d8b6020830185611f3f565b612d986040830184611f3f565b949350505050565b60006060820190508181036000830152612dba8186612d29565b9050612dc96020830185611f3f565b612dd66040830184611fe9565b949350505050565b7f4e487b7100000000000000000000000000000000000000000000000000000000600052603260045260246000fdfe25732073756220746f6b656e2073616c65732067656e65726174652025732077656920666f722074686520746f6b656e20686f6c6465722573206973207468652070657263656e74616765206f6620746865202573202873742f6e642f72642f746829207075726368617365722025732073756220746f6b656e2073616c65732067656e65726174652025732077656920666f722074686520726566657272696e672073756220746f6b656e20686f6c646572a26469706673582212205a316d33a84f8ed39913a44596123716a6247124ea5d64162423ea22e79c7d3064736f6c634300080b0033",
  "linkReferences": {},
  "deployedLinkReferences": {}
}