{
  "_format": "hh-sol-artifact-1",
  "contractName": "DesubTokenV2",
  "sourceName": "contracts/DesubTokenV2.sol",
  "abi": [
    {
      "anonymous": false,
      "inputs": [
        {
          "indexed": true,
          "internalType": "address",
          "name": "from",
          "type": "address"
        },
        {
          "indexed": true,
          "internalType": "address",
          "name": "to",
          "type": "address"
        },
        {
          "indexed": true,
          "internalType": "uint256",
          "name": "tokenID",
          "type": "uint256"
        }
      ],
      "name": "Transfer",
      "type": "event"
    },
    {
      "inputs": [
        {
          "internalType": "address",
          "name": "tokenOwner",
          "type": "address"
        }
      ],
      "name": "balanceOf",
      "outputs": [
        {
          "internalType": "uint256",
          "name": "",
          "type": "uint256"
        }
      ],
      "stateMutability": "view",
      "type": "function"
    },
    {
      "inputs": [
        {
          "internalType": "uint256",
          "name": "tokenID",
          "type": "uint256"
        }
      ],
      "name": "getNumberOfSubTokensSoldOfTokenID",
      "outputs": [
        {
          "internalType": "uint256",
          "name": "",
          "type": "uint256"
        }
      ],
      "stateMutability": "view",
      "type": "function"
    },
    {
      "inputs": [
        {
          "internalType": "uint256",
          "name": "tokenID",
          "type": "uint256"
        },
        {
          "internalType": "address",
          "name": "purchaserAddress",
          "type": "address"
        }
      ],
      "name": "getSequenceOfPurchaseOfTokenIDByAddress",
      "outputs": [
        {
          "internalType": "uint256",
          "name": "",
          "type": "uint256"
        }
      ],
      "stateMutability": "view",
      "type": "function"
    },
    {
      "inputs": [
        {
          "internalType": "uint256",
          "name": "tokenID",
          "type": "uint256"
        }
      ],
      "name": "getSubTokenHolderReferralRoyaltyPaidOut",
      "outputs": [
        {
          "internalType": "uint256",
          "name": "",
          "type": "uint256"
        }
      ],
      "stateMutability": "view",
      "type": "function"
    },
    {
      "inputs": [
        {
          "internalType": "address",
          "name": "subTokenHolder",
          "type": "address"
        },
        {
          "internalType": "uint256",
          "name": "tokenID",
          "type": "uint256"
        }
      ],
      "name": "getSubTokenHolderRoyaltyBalance",
      "outputs": [
        {
          "internalType": "uint256",
          "name": "",
          "type": "uint256"
        }
      ],
      "stateMutability": "view",
      "type": "function"
    },
    {
      "inputs": [
        {
          "internalType": "uint256",
          "name": "tokenID",
          "type": "uint256"
        }
      ],
      "name": "getSubTokenHolderStackRewardPaidOut",
      "outputs": [
        {
          "internalType": "uint256",
          "name": "",
          "type": "uint256"
        }
      ],
      "stateMutability": "view",
      "type": "function"
    },
    {
      "inputs": [
        {
          "internalType": "address",
          "name": "subTokenHolder",
          "type": "address"
        },
        {
          "internalType": "uint256",
          "name": "tokenID",
          "type": "uint256"
        }
      ],
      "name": "getSubTokenHolderStackRewardPct",
      "outputs": [
        {
          "internalType": "uint256",
          "name": "",
          "type": "uint256"
        }
      ],
      "stateMutability": "view",
      "type": "function"
    },
    {
      "inputs": [
        {
          "internalType": "address",
          "name": "subTokenHolder",
          "type": "address"
        },
        {
          "internalType": "uint256",
          "name": "tokenID",
          "type": "uint256"
        }
      ],
      "name": "getSubTokenHolderTotalStackReward",
      "outputs": [
        {
          "internalType": "uint256",
          "name": "",
          "type": "uint256"
        }
      ],
      "stateMutability": "view",
      "type": "function"
    },
    {
      "inputs": [
        {
          "internalType": "uint256",
          "name": "tokenID",
          "type": "uint256"
        }
      ],
      "name": "getTokenHolderRoyaltyGrossTotal",
      "outputs": [
        {
          "internalType": "uint256",
          "name": "",
          "type": "uint256"
        }
      ],
      "stateMutability": "view",
      "type": "function"
    },
    {
      "inputs": [
        {
          "internalType": "uint256",
          "name": "tokenID",
          "type": "uint256"
        }
      ],
      "name": "getTokenHolderRoyaltyPaidOut",
      "outputs": [
        {
          "internalType": "uint256",
          "name": "",
          "type": "uint256"
        }
      ],
      "stateMutability": "view",
      "type": "function"
    },
    {
      "inputs": [
        {
          "internalType": "string",
          "name": "name_",
          "type": "string"
        },
        {
          "internalType": "string",
          "name": "symbol_",
          "type": "string"
        }
      ],
      "name": "initialize",
      "outputs": [],
      "stateMutability": "nonpayable",
      "type": "function"
    },
    {
      "inputs": [
        {
          "internalType": "address",
          "name": "to",
          "type": "address"
        },
        {
          "internalType": "uint256",
          "name": "tokenID",
          "type": "uint256"
        }
      ],
      "name": "mint",
      "outputs": [],
      "stateMutability": "nonpayable",
      "type": "function"
    },
    {
      "inputs": [
        {
          "internalType": "uint256",
          "name": "tokenID",
          "type": "uint256"
        },
        {
          "internalType": "address",
          "name": "referrerAddress",
          "type": "address"
        }
      ],
      "name": "numberOfReferralsForTokenIDandAddress",
      "outputs": [
        {
          "internalType": "uint256",
          "name": "",
          "type": "uint256"
        }
      ],
      "stateMutability": "view",
      "type": "function"
    },
    {
      "inputs": [],
      "name": "owner",
      "outputs": [
        {
          "internalType": "address",
          "name": "",
          "type": "address"
        }
      ],
      "stateMutability": "view",
      "type": "function"
    },
    {
      "inputs": [
        {
          "internalType": "uint256",
          "name": "tokenID",
          "type": "uint256"
        }
      ],
      "name": "ownerOf",
      "outputs": [
        {
          "internalType": "address",
          "name": "",
          "type": "address"
        }
      ],
      "stateMutability": "view",
      "type": "function"
    },
    {
      "inputs": [
        {
          "internalType": "uint256",
          "name": "tokenID",
          "type": "uint256"
        },
        {
          "internalType": "uint256",
          "name": "amount",
          "type": "uint256"
        },
        {
          "internalType": "address",
          "name": "to",
          "type": "address"
        }
      ],
      "name": "payOutSubTokenHolderReferralRoyalty",
      "outputs": [],
      "stateMutability": "nonpayable",
      "type": "function"
    },
    {
      "inputs": [
        {
          "internalType": "uint256",
          "name": "tokenID",
          "type": "uint256"
        },
        {
          "internalType": "uint256",
          "name": "amount",
          "type": "uint256"
        },
        {
          "internalType": "address",
          "name": "to",
          "type": "address"
        }
      ],
      "name": "payOutSubTokenHolderStackReward",
      "outputs": [],
      "stateMutability": "nonpayable",
      "type": "function"
    },
    {
      "inputs": [
        {
          "internalType": "uint256",
          "name": "tokenID",
          "type": "uint256"
        },
        {
          "internalType": "uint256",
          "name": "amount",
          "type": "uint256"
        },
        {
          "internalType": "address",
          "name": "to",
          "type": "address"
        }
      ],
      "name": "payOutTokenHolderRoyalty",
      "outputs": [],
      "stateMutability": "nonpayable",
      "type": "function"
    },
    {
      "inputs": [
        {
          "internalType": "address",
          "name": "referrer",
          "type": "address"
        },
        {
          "internalType": "uint256",
          "name": "tokenID",
          "type": "uint256"
        }
      ],
      "name": "purchaseSubToken",
      "outputs": [],
      "stateMutability": "payable",
      "type": "function"
    },
    {
      "inputs": [
        {
          "internalType": "address",
          "name": "tokenOwner",
          "type": "address"
        },
        {
          "internalType": "uint256",
          "name": "index",
          "type": "uint256"
        }
      ],
      "name": "tokenOfOwnerByIndex",
      "outputs": [
        {
          "internalType": "uint256",
          "name": "",
          "type": "uint256"
        }
      ],
      "stateMutability": "view",
      "type": "function"
    },
    {
      "inputs": [],
      "name": "universalContentPrice",
      "outputs": [
        {
          "internalType": "uint256",
          "name": "",
          "type": "uint256"
        }
      ],
      "stateMutability": "view",
      "type": "function"
    },
    {
      "inputs": [],
      "name": "upgradeTest",
      "outputs": [
        {
          "internalType": "uint256",
          "name": "",
          "type": "uint256"
        }
      ],
      "stateMutability": "view",
      "type": "function"
    }
  ],
  "bytecode": "0x608060405234801561001057600080fd5b5061358c806100206000396000f3fe6080604052600436106101355760003560e01c80637edd47a1116100ab578063b00add911161006f578063b00add9114610484578063bb551678146104c1578063c975a722146104fe578063e168818f1461053b578063ed35eb7c14610564578063f86a4ffd1461058057610135565b80637edd47a11461038b57806388238430146103c857806389346666146103f35780638da5cb5b1461043057806396f290011461045b57610135565b80633d20b15c116100fd5780633d20b15c1461025757806340c10f19146102825780634bcd2119146102ab5780634cd88b76146102e85780636352211e1461031157806370a082311461034e57610135565b80631e3160c51461013a5780631eec26d3146101775780632f745c59146101a057806334eee17a146101dd5780633b17b6271461021a575b600080fd5b34801561014657600080fd5b50610161600480360381019061015c9190612263565b6105bd565b60405161016e91906122b2565b60405180910390f35b34801561018357600080fd5b5061019e600480360381019061019991906122cd565b610626565b005b3480156101ac57600080fd5b506101c760048036038101906101c29190612263565b6108cd565b6040516101d491906122b2565b60405180910390f35b3480156101e957600080fd5b5061020460048036038101906101ff9190612320565b610928565b60405161021191906122b2565b60405180910390f35b34801561022657600080fd5b50610241600480360381019061023c9190612263565b6109b0565b60405161024e91906122b2565b60405180910390f35b34801561026357600080fd5b5061026c610a61565b60405161027991906122b2565b60405180910390f35b34801561028e57600080fd5b506102a960048036038101906102a49190612263565b610a6a565b005b3480156102b757600080fd5b506102d260048036038101906102cd9190612263565b610c97565b6040516102df91906122b2565b60405180910390f35b3480156102f457600080fd5b5061030f600480360381019061030a9190612493565b610d1b565b005b34801561031d57600080fd5b5061033860048036038101906103339190612320565b610e78565b604051610345919061251a565b60405180910390f35b34801561035a57600080fd5b5061037560048036038101906103709190612535565b610f2a565b60405161038291906122b2565b60405180910390f35b34801561039757600080fd5b506103b260048036038101906103ad9190612320565b610fe2565b6040516103bf91906122b2565b60405180910390f35b3480156103d457600080fd5b506103dd611085565b6040516103ea91906122b2565b60405180910390f35b3480156103ff57600080fd5b5061041a60048036038101906104159190612320565b611090565b60405161042791906122b2565b60405180910390f35b34801561043c57600080fd5b506104456110ad565b604051610452919061251a565b60405180910390f35b34801561046757600080fd5b50610482600480360381019061047d91906122cd565b6110d3565b005b34801561049057600080fd5b506104ab60048036038101906104a69190612562565b61137a565b6040516104b891906122b2565b60405180910390f35b3480156104cd57600080fd5b506104e860048036038101906104e39190612320565b6113d5565b6040516104f591906122b2565b60405180910390f35b34801561050a57600080fd5b5061052560048036038101906105209190612320565b6114d0565b60405161053291906122b2565b60405180910390f35b34801561054757600080fd5b50610562600480360381019061055d91906122cd565b611573565b005b61057e60048036038101906105799190612263565b6118b1565b005b34801561058c57600080fd5b506105a760048036038101906105a29190612562565b611cb6565b6040516105b491906122b2565b60405180910390f35b60008066017c231a281af86105d28486611cb6565b6105dc91906125d1565b90506000600a826105ed919061265a565b905061061b604051806080016040528060458152602001613512604591396106158688611cb6565b83611d11565b809250505092915050565b6002600154141561066c576040517f08c379a0000000000000000000000000000000000000000000000000000000008152600401610663906126e8565b60405180910390fd5b600260018190555061067e8333611db0565b6106bd576040517f08c379a00000000000000000000000000000000000000000000000000000000081526004016106b4906127a0565b60405180910390fd5b60008211610700576040517f08c379a00000000000000000000000000000000000000000000000000000000081526004016106f790612832565b60405180910390fd5b6000603e600085815260200190815260200160002060003373ffffffffffffffffffffffffffffffffffffffff1673ffffffffffffffffffffffffffffffffffffffff1681526020019081526020016000205461075d33866105bd565b6107679190612852565b9050828110156107ac576040517f08c379a00000000000000000000000000000000000000000000000000000000081526004016107a3906128f8565b60405180910390fd5b82603e600086815260200190815260200160002060003373ffffffffffffffffffffffffffffffffffffffff1673ffffffffffffffffffffffffffffffffffffffff168152602001908152602001600020600082825461080c9190612918565b9250508190555060008273ffffffffffffffffffffffffffffffffffffffff16846040516108399061299f565b60006040518083038185875af1925050503d8060008114610876576040519150601f19603f3d011682016040523d82523d6000602084013e61087b565b606091505b50509050806108bf576040517f08c379a00000000000000000000000000000000000000000000000000000000081526004016108b690612a00565b60405180910390fd5b505060018081905550505050565b600061092082603760008673ffffffffffffffffffffffffffffffffffffffff1673ffffffffffffffffffffffffffffffffffffffff168152602001908152602001600020611e0d90919063ffffffff16565b905092915050565b60008066017c231a281af8603960008581526020019081526020016000205461095191906125d1565b90506000606460508361096491906125d1565b61096e919061265a565b90506109a66040518060600160405280603781526020016134a460379139603960008781526020019081526020016000205483611d11565b8092505050919050565b6000806109bd8484610c97565b9050600066017c231a281af860396000868152602001908152602001600020546109e791906125d1565b90506000640684ee1800604b84846109ff91906125d1565b610a0991906125d1565b610a13919061265a565b9050610a556040518060400160405280601e81526020017f25732069732074686520726577617264206f662074686520257320706f7400008152508284611d11565b80935050505092915050565b60006058905090565b600073ffffffffffffffffffffffffffffffffffffffff168273ffffffffffffffffffffffffffffffffffffffff161415610ada576040517f08c379a0000000000000000000000000000000000000000000000000000000008152600401610ad190612a6c565b60405180910390fd5b610ae381611e27565b15610b23576040517f08c379a0000000000000000000000000000000000000000000000000000000008152600401610b1a90612ad8565b60405180910390fd5b816036600083815260200190815260200160002060006101000a81548173ffffffffffffffffffffffffffffffffffffffff021916908373ffffffffffffffffffffffffffffffffffffffff1602179055506001603860008473ffffffffffffffffffffffffffffffffffffffff1673ffffffffffffffffffffffffffffffffffffffff1681526020019081526020016000206000828254610bc59190612918565b92505081905550610c1d81603760008573ffffffffffffffffffffffffffffffffffffffff1673ffffffffffffffffffffffffffffffffffffffff168152602001908152602001600020611e9390919063ffffffff16565b5060006039600083815260200190815260200160002081905550808273ffffffffffffffffffffffffffffffffffffffff16600073ffffffffffffffffffffffffffffffffffffffff167fddf252ad1be2c89b69c2b068fc378daa952ba7f163c4a11628f55a4df523b3ef60405160405180910390a45050565b600080610ca4838561137a565b9050610ced6040518060600160405280603781526020016134db60379139603b600086815260200190815260200160002060008481526020019081526020016000205483611d11565b603b600084815260200190815260200160002060008281526020019081526020016000205491505092915050565b600060019054906101000a900460ff16610d435760008054906101000a900460ff1615610d4c565b610d4b611ead565b5b610d8b576040517f08c379a0000000000000000000000000000000000000000000000000000000008152600401610d8290612b6a565b60405180910390fd5b60008060019054906101000a900460ff161590508015610ddb576001600060016101000a81548160ff02191690831515021790555060016000806101000a81548160ff0219169083151502179055505b610de3611ebe565b8260339080519060200190610df9929190612118565b508160349080519060200190610e10929190612118565b5033603560006101000a81548173ffffffffffffffffffffffffffffffffffffffff021916908373ffffffffffffffffffffffffffffffffffffffff1602179055508015610e735760008060016101000a81548160ff0219169083151502179055505b505050565b6000806036600084815260200190815260200160002060009054906101000a900473ffffffffffffffffffffffffffffffffffffffff169050600073ffffffffffffffffffffffffffffffffffffffff168173ffffffffffffffffffffffffffffffffffffffff161415610f21576040517f08c379a0000000000000000000000000000000000000000000000000000000008152600401610f1890612bfc565b60405180910390fd5b80915050919050565b60008073ffffffffffffffffffffffffffffffffffffffff168273ffffffffffffffffffffffffffffffffffffffff161415610f9b576040517f08c379a0000000000000000000000000000000000000000000000000000000008152600401610f9290612c8e565b60405180910390fd5b603860008373ffffffffffffffffffffffffffffffffffffffff1673ffffffffffffffffffffffffffffffffffffffff168152602001908152602001600020549050919050565b6000610fee8233611db0565b61102d576040517f08c379a000000000000000000000000000000000000000000000000000000000815260040161102490612d46565b60405180910390fd5b603f600083815260200190815260200160002060003373ffffffffffffffffffffffffffffffffffffffff1673ffffffffffffffffffffffffffffffffffffffff168152602001908152602001600020549050919050565b66017c231a281af881565b600060396000838152602001908152602001600020549050919050565b603560009054906101000a900473ffffffffffffffffffffffffffffffffffffffff1681565b60026001541415611119576040517f08c379a0000000000000000000000000000000000000000000000000000000008152600401611110906126e8565b60405180910390fd5b600260018190555061112b8333611db0565b61116a576040517f08c379a000000000000000000000000000000000000000000000000000000000815260040161116190612dfe565b60405180910390fd5b600082116111ad576040517f08c379a00000000000000000000000000000000000000000000000000000000081526004016111a490612832565b60405180910390fd5b6000603f600085815260200190815260200160002060003373ffffffffffffffffffffffffffffffffffffffff1673ffffffffffffffffffffffffffffffffffffffff1681526020019081526020016000205461120a33866109b0565b6112149190612852565b905082811015611259576040517f08c379a0000000000000000000000000000000000000000000000000000000008152600401611250906128f8565b60405180910390fd5b82603f600086815260200190815260200160002060003373ffffffffffffffffffffffffffffffffffffffff1673ffffffffffffffffffffffffffffffffffffffff16815260200190815260200160002060008282546112b99190612918565b9250508190555060008273ffffffffffffffffffffffffffffffffffffffff16846040516112e69061299f565b60006040518083038185875af1925050503d8060008114611323576040519150601f19603f3d011682016040523d82523d6000602084013e611328565b606091505b505090508061136c576040517f08c379a000000000000000000000000000000000000000000000000000000000815260040161136390612a00565b60405180910390fd5b505060018081905550505050565b6000603a600084815260200190815260200160002060008373ffffffffffffffffffffffffffffffffffffffff1673ffffffffffffffffffffffffffffffffffffffff16815260200190815260200160002054905092915050565b60006036600083815260200190815260200160002060009054906101000a900473ffffffffffffffffffffffffffffffffffffffff1673ffffffffffffffffffffffffffffffffffffffff163373ffffffffffffffffffffffffffffffffffffffff1614611478576040517f08c379a000000000000000000000000000000000000000000000000000000000815260040161146f90612eb6565b60405180910390fd5b603d600083815260200190815260200160002060003373ffffffffffffffffffffffffffffffffffffffff1673ffffffffffffffffffffffffffffffffffffffff168152602001908152602001600020549050919050565b60006114dc8233611db0565b61151b576040517f08c379a000000000000000000000000000000000000000000000000000000000815260040161151290612f6e565b60405180910390fd5b603e600083815260200190815260200160002060003373ffffffffffffffffffffffffffffffffffffffff1673ffffffffffffffffffffffffffffffffffffffff168152602001908152602001600020549050919050565b600260015414156115b9576040517f08c379a00000000000000000000000000000000000000000000000000000000081526004016115b0906126e8565b60405180910390fd5b60026001819055506036600084815260200190815260200160002060009054906101000a900473ffffffffffffffffffffffffffffffffffffffff1673ffffffffffffffffffffffffffffffffffffffff163373ffffffffffffffffffffffffffffffffffffffff1614611662576040517f08c379a000000000000000000000000000000000000000000000000000000000815260040161165990613000565b60405180910390fd5b600082116116a5576040517f08c379a000000000000000000000000000000000000000000000000000000000815260040161169c90612832565b60405180910390fd5b6000603d600085815260200190815260200160002060003373ffffffffffffffffffffffffffffffffffffffff1673ffffffffffffffffffffffffffffffffffffffff1681526020019081526020016000205461170185610928565b61170b9190612852565b905061174d6040518060400160405280601081526020017f2573206973206f77656420746f202573000000000000000000000000000000008152508233611f17565b82811015611790576040517f08c379a0000000000000000000000000000000000000000000000000000000008152600401611787906128f8565b60405180910390fd5b82603d600086815260200190815260200160002060003373ffffffffffffffffffffffffffffffffffffffff1673ffffffffffffffffffffffffffffffffffffffff16815260200190815260200160002060008282546117f09190612918565b9250508190555060008273ffffffffffffffffffffffffffffffffffffffff168460405161181d9061299f565b60006040518083038185875af1925050503d806000811461185a576040519150601f19603f3d011682016040523d82523d6000602084013e61185f565b606091505b50509050806118a3576040517f08c379a000000000000000000000000000000000000000000000000000000000815260040161189a90612a00565b60405180910390fd5b505060018081905550505050565b66017c231a281af83410156118fb576040517f08c379a00000000000000000000000000000000000000000000000000000000081526004016118f290613092565b60405180910390fd5b61190481611e27565b611943576040517f08c379a000000000000000000000000000000000000000000000000000000000815260040161193a90613124565b60405180910390fd5b6000603a600083815260200190815260200160002060003373ffffffffffffffffffffffffffffffffffffffff1673ffffffffffffffffffffffffffffffffffffffff16815260200190815260200160002054146119d6576040517f08c379a00000000000000000000000000000000000000000000000000000000081526004016119cd906131b6565b60405180910390fd5b6119e08183611db0565b80611a1e57506119ef81610e78565b73ffffffffffffffffffffffffffffffffffffffff168273ffffffffffffffffffffffffffffffffffffffff16145b611a5d576040517f08c379a0000000000000000000000000000000000000000000000000000000008152600401611a549061326e565b60405180910390fd5b6001603960008381526020019081526020016000206000828254611a819190612918565b925050819055506001603c600083815260200190815260200160002060008473ffffffffffffffffffffffffffffffffffffffff1673ffffffffffffffffffffffffffffffffffffffff1681526020019081526020016000206000828254611ae99190612918565b9250508190555060006039600083815260200190815260200160002054905080603a600084815260200190815260200160002060003373ffffffffffffffffffffffffffffffffffffffff1673ffffffffffffffffffffffffffffffffffffffff168152602001908152602001600020819055506001811415611b97576201adb0603b6000848152602001908152602001600020600083815260200190815260200160002081905550611cb1565b610dfc8111611c85576000806002831415611bbd576201d4c091506201adb09050611c24565b603b60008581526020019081526020016000206000600285611bdf9190612852565b8152602001908152602001600020549150603b60008581526020019081526020016000206000600185611c129190612852565b81526020019081526020016000205490505b6064605b60ff168284611c379190612852565b611c4191906125d1565b611c4b919061265a565b81611c569190612852565b603b60008681526020019081526020016000206000858152602001908152602001600020819055505050611cb0565b6000603b60008481526020019081526020016000206000838152602001908152602001600020819055505b5b505050565b6000603c600084815260200190815260200160002060008373ffffffffffffffffffffffffffffffffffffffff1673ffffffffffffffffffffffffffffffffffffffff16815260200190815260200160002054905092915050565b611dab838383604051602401611d2993929190613305565b6040516020818303038152906040527f969cdd03000000000000000000000000000000000000000000000000000000007bffffffffffffffffffffffffffffffffffffffffffffffffffffffff19166020820180517bffffffffffffffffffffffffffffffffffffffffffffffffffffffff8381831617835250505050611fb6565b505050565b600080603a600085815260200190815260200160002060008473ffffffffffffffffffffffffffffffffffffffff1673ffffffffffffffffffffffffffffffffffffffff1681526020019081526020016000205411905092915050565b6000611e1c8360000183611fdf565b60001c905092915050565b60008073ffffffffffffffffffffffffffffffffffffffff166036600084815260200190815260200160002060009054906101000a900473ffffffffffffffffffffffffffffffffffffffff1673ffffffffffffffffffffffffffffffffffffffff1614159050919050565b6000611ea5836000018360001b61200a565b905092915050565b6000611eb83061207a565b15905090565b600060019054906101000a900460ff16611f0d576040517f08c379a0000000000000000000000000000000000000000000000000000000008152600401611f04906133b5565b60405180910390fd5b611f1561209d565b565b611fb1838383604051602401611f2f939291906133d5565b6040516020818303038152906040527fe3849f79000000000000000000000000000000000000000000000000000000007bffffffffffffffffffffffffffffffffffffffffffffffffffffffff19166020820180517bffffffffffffffffffffffffffffffffffffffffffffffffffffffff8381831617835250505050611fb6565b505050565b60008151905060006a636f6e736f6c652e6c6f679050602083016000808483855afa5050505050565b6000826000018281548110611ff757611ff6613413565b5b9060005260206000200154905092915050565b600061201683836120f5565b61206f578260000182908060018154018082558091505060019003906000526020600020016000909190919091505582600001805490508360010160008481526020019081526020016000208190555060019050612074565b600090505b92915050565b6000808273ffffffffffffffffffffffffffffffffffffffff163b119050919050565b600060019054906101000a900460ff166120ec576040517f08c379a00000000000000000000000000000000000000000000000000000000081526004016120e3906133b5565b60405180910390fd5b60018081905550565b600080836001016000848152602001908152602001600020541415905092915050565b82805461212490613471565b90600052602060002090601f016020900481019282612146576000855561218d565b82601f1061215f57805160ff191683800117855561218d565b8280016001018555821561218d579182015b8281111561218c578251825591602001919060010190612171565b5b50905061219a919061219e565b5090565b5b808211156121b757600081600090555060010161219f565b5090565b6000604051905090565b600080fd5b600080fd5b600073ffffffffffffffffffffffffffffffffffffffff82169050919050565b60006121fa826121cf565b9050919050565b61220a816121ef565b811461221557600080fd5b50565b60008135905061222781612201565b92915050565b6000819050919050565b6122408161222d565b811461224b57600080fd5b50565b60008135905061225d81612237565b92915050565b6000806040838503121561227a576122796121c5565b5b600061228885828601612218565b92505060206122998582860161224e565b9150509250929050565b6122ac8161222d565b82525050565b60006020820190506122c760008301846122a3565b92915050565b6000806000606084860312156122e6576122e56121c5565b5b60006122f48682870161224e565b93505060206123058682870161224e565b925050604061231686828701612218565b9150509250925092565b600060208284031215612336576123356121c5565b5b60006123448482850161224e565b91505092915050565b600080fd5b600080fd5b6000601f19601f8301169050919050565b7f4e487b7100000000000000000000000000000000000000000000000000000000600052604160045260246000fd5b6123a082612357565b810181811067ffffffffffffffff821117156123bf576123be612368565b5b80604052505050565b60006123d26121bb565b90506123de8282612397565b919050565b600067ffffffffffffffff8211156123fe576123fd612368565b5b61240782612357565b9050602081019050919050565b82818337600083830152505050565b6000612436612431846123e3565b6123c8565b90508281526020810184848401111561245257612451612352565b5b61245d848285612414565b509392505050565b600082601f83011261247a5761247961234d565b5b813561248a848260208601612423565b91505092915050565b600080604083850312156124aa576124a96121c5565b5b600083013567ffffffffffffffff8111156124c8576124c76121ca565b5b6124d485828601612465565b925050602083013567ffffffffffffffff8111156124f5576124f46121ca565b5b61250185828601612465565b9150509250929050565b612514816121ef565b82525050565b600060208201905061252f600083018461250b565b92915050565b60006020828403121561254b5761254a6121c5565b5b600061255984828501612218565b91505092915050565b60008060408385031215612579576125786121c5565b5b60006125878582860161224e565b925050602061259885828601612218565b9150509250929050565b7f4e487b7100000000000000000000000000000000000000000000000000000000600052601160045260246000fd5b60006125dc8261222d565b91506125e78361222d565b9250817fffffffffffffffffffffffffffffffffffffffffffffffffffffffffffffffff04831182151516156126205761261f6125a2565b5b828202905092915050565b7f4e487b7100000000000000000000000000000000000000000000000000000000600052601260045260246000fd5b60006126658261222d565b91506126708361222d565b9250826126805761267f61262b565b5b828204905092915050565b600082825260208201905092915050565b7f5265656e7472616e637947756172643a207265656e7472616e742063616c6c00600082015250565b60006126d2601f8361268b565b91506126dd8261269c565b602082019050919050565b60006020820190508181036000830152612701816126c5565b9050919050565b7f4f6e6c7920746865206f776e6572206f6620746869732073756220746f6b656e60008201527f2063616e207265717565737420746865697220726566657272616c20726f796160208201527f6c7479207061796f757473000000000000000000000000000000000000000000604082015250565b600061278a604b8361268b565b915061279582612708565b606082019050919050565b600060208201905081810360008301526127b98161277d565b9050919050565b7f5061796f757420616d6f756e74206d757374206265206772656174657220746860008201527f616e203000000000000000000000000000000000000000000000000000000000602082015250565b600061281c60248361268b565b9150612827826127c0565b604082019050919050565b6000602082019050818103600083015261284b8161280f565b9050919050565b600061285d8261222d565b91506128688361222d565b92508282101561287b5761287a6125a2565b5b828203905092915050565b7f43616e277420706179206f7574206d6f7265207468616e20776861742069732060008201527f6f77656420746f20796f75000000000000000000000000000000000000000000602082015250565b60006128e2602b8361268b565b91506128ed82612886565b604082019050919050565b60006020820190508181036000830152612911816128d5565b9050919050565b60006129238261222d565b915061292e8361222d565b9250827fffffffffffffffffffffffffffffffffffffffffffffffffffffffffffffffff03821115612963576129626125a2565b5b828201905092915050565b600081905092915050565b50565b600061298960008361296e565b915061299482612979565b600082019050919050565b60006129aa8261297c565b9150819050919050565b7f5472616e73666572206661696c65642e00000000000000000000000000000000600082015250565b60006129ea60108361268b565b91506129f5826129b4565b602082019050919050565b60006020820190508181036000830152612a19816129dd565b9050919050565b7f4552433732313a206d696e7420746f20746865207a65726f2061646472657373600082015250565b6000612a5660208361268b565b9150612a6182612a20565b602082019050919050565b60006020820190508181036000830152612a8581612a49565b9050919050565b7f4552433732313a20746f6b656e20616c7265616479206d696e74656400000000600082015250565b6000612ac2601c8361268b565b9150612acd82612a8c565b602082019050919050565b60006020820190508181036000830152612af181612ab5565b9050919050565b7f496e697469616c697a61626c653a20636f6e747261637420697320616c72656160008201527f647920696e697469616c697a6564000000000000000000000000000000000000602082015250565b6000612b54602e8361268b565b9150612b5f82612af8565b604082019050919050565b60006020820190508181036000830152612b8381612b47565b9050919050565b7f4552433732313a206f776e657220717565727920666f72206e6f6e657869737460008201527f656e7420746f6b656e0000000000000000000000000000000000000000000000602082015250565b6000612be660298361268b565b9150612bf182612b8a565b604082019050919050565b60006020820190508181036000830152612c1581612bd9565b9050919050565b7f4552433732313a2062616c616e636520717565727920666f7220746865207a6560008201527f726f206164647265737300000000000000000000000000000000000000000000602082015250565b6000612c78602a8361268b565b9150612c8382612c1c565b604082019050919050565b60006020820190508181036000830152612ca781612c6b565b9050919050565b7f4f6e6c7920746865206f776e6572206f6620746869732073756220746f6b656e60008201527f2063616e2073656520746865697220737461636b20726577617264207061796f60208201527f7574730000000000000000000000000000000000000000000000000000000000604082015250565b6000612d3060438361268b565b9150612d3b82612cae565b606082019050919050565b60006020820190508181036000830152612d5f81612d23565b9050919050565b7f4f6e6c7920746865206f776e6572206f6620746869732073756220746f6b656e60008201527f2063616e207265717565737420746865697220737461636b207265776172642060208201527f7061796f75747300000000000000000000000000000000000000000000000000604082015250565b6000612de860478361268b565b9150612df382612d66565b606082019050919050565b60006020820190508181036000830152612e1781612ddb565b9050919050565b7f4f6e6c7920746865206f776e6572206f66207468697320636f6e74656e74207460008201527f6f6b656e2063616e2073656520746865697220726f79616c7479207061796f7560208201527f7473000000000000000000000000000000000000000000000000000000000000604082015250565b6000612ea060428361268b565b9150612eab82612e1e565b606082019050919050565b60006020820190508181036000830152612ecf81612e93565b9050919050565b7f4f6e6c7920746865206f776e6572206f6620746869732073756220746f6b656e60008201527f2063616e2073656520746865697220726566657272616c20726f79616c74792060208201527f7061796f75747300000000000000000000000000000000000000000000000000604082015250565b6000612f5860478361268b565b9150612f6382612ed6565b606082019050919050565b60006020820190508181036000830152612f8781612f4b565b9050919050565b7f4f6e6c7920746865206f776e6572206f66207468697320636f6e74656e74207460008201527f6f6b656e2063616e207265717565737420726f79616c7479207061796f757400602082015250565b6000612fea603f8361268b565b9150612ff582612f8e565b604082019050919050565b6000602082019050818103600083015261301981612fdd565b9050919050565b7f496e73756666696369656e742066756e6473207061696420746f20707572636860008201527f6173652073756220746f6b656e00000000000000000000000000000000000000602082015250565b600061307c602d8361268b565b915061308782613020565b604082019050919050565b600060208201905081810360008301526130ab8161306f565b9050919050565b7f43616e6e6f742070757263686173652061206e6f6e206578697374616e74207460008201527f6f6b656e49440000000000000000000000000000000000000000000000000000602082015250565b600061310e60268361268b565b9150613119826130b2565b604082019050919050565b6000602082019050818103600083015261313d81613101565b9050919050565b7f416464726573732068617320616c72656164792070757263686173656420737560008201527f6220746f6b656e00000000000000000000000000000000000000000000000000602082015250565b60006131a060278361268b565b91506131ab82613144565b604082019050919050565b600060208201905081810360008301526131cf81613193565b9050919050565b7f496e76616c696420726566657272657220616464726573732c206d616b65207360008201527f757265207265666572726572206f776e7320746f6b656e206f7220737562207460208201527f6f6b656e206f66207468697320746f6b656e4944000000000000000000000000604082015250565b600061325860548361268b565b9150613263826131d6565b606082019050919050565b600060208201905081810360008301526132878161324b565b9050919050565b600081519050919050565b60005b838110156132b757808201518184015260208101905061329c565b838111156132c6576000848401525b50505050565b60006132d78261328e565b6132e1818561268b565b93506132f1818560208601613299565b6132fa81612357565b840191505092915050565b6000606082019050818103600083015261331f81866132cc565b905061332e60208301856122a3565b61333b60408301846122a3565b949350505050565b7f496e697469616c697a61626c653a20636f6e7472616374206973206e6f74206960008201527f6e697469616c697a696e67000000000000000000000000000000000000000000602082015250565b600061339f602b8361268b565b91506133aa82613343565b604082019050919050565b600060208201905081810360008301526133ce81613392565b9050919050565b600060608201905081810360008301526133ef81866132cc565b90506133fe60208301856122a3565b61340b604083018461250b565b949350505050565b7f4e487b7100000000000000000000000000000000000000000000000000000000600052603260045260246000fd5b7f4e487b7100000000000000000000000000000000000000000000000000000000600052602260045260246000fd5b6000600282049050600182168061348957607f821691505b6020821081141561349d5761349c613442565b5b5091905056fe25732073756220746f6b656e2073616c65732067656e65726174652025732077656920666f722074686520746f6b656e20686f6c6465722573206973207468652070657263656e74616765206f6620746865202573202873742f6e642f72642f746829207075726368617365722025732073756220746f6b656e2073616c65732067656e65726174652025732077656920666f722074686520726566657272696e672073756220746f6b656e20686f6c646572a26469706673582212204e60651888788a07a3c3e349fc7be760eaf9d6bbe48420e11bc9fd69cc0d0f6764736f6c634300080b0033",
  "linkReferences": {},
  "deployedLinkReferences": {}
}